{
  "_format": "hh-sol-artifact-1",
  "contractName": "CredentialRegistry",
  "sourceName": "app/contracts/CredentialRegistry.sol",
  "abi": [
    {
      "anonymous": false,
      "inputs": [
        {
          "indexed": true,
          "internalType": "string",
          "name": "credentialId",
          "type": "string"
        },
        {
          "indexed": false,
          "internalType": "string",
          "name": "credentialHash",
          "type": "string"
        },
        {
          "indexed": true,
          "internalType": "address",
          "name": "issuer",
          "type": "address"
        },
        {
          "indexed": true,
          "internalType": "string",
          "name": "tenantId",
          "type": "string"
        },
        {
          "indexed": false,
          "internalType": "uint256",
          "name": "timestamp",
          "type": "uint256"
        }
      ],
      "name": "CredentialAnchored",
      "type": "event"
    },
    {
      "anonymous": false,
      "inputs": [
        {
          "indexed": true,
          "internalType": "string",
          "name": "credentialId",
          "type": "string"
        },
        {
          "indexed": true,
          "internalType": "address",
          "name": "revoker",
          "type": "address"
        },
        {
          "indexed": false,
          "internalType": "string",
          "name": "reason",
          "type": "string"
        },
        {
          "indexed": false,
          "internalType": "uint256",
          "name": "timestamp",
          "type": "uint256"
        }
      ],
      "name": "CredentialRevoked",
      "type": "event"
    },
    {
      "anonymous": false,
      "inputs": [
        {
          "indexed": true,
          "internalType": "string",
          "name": "credentialId",
          "type": "string"
        },
        {
          "indexed": false,
          "internalType": "string",
          "name": "newHash",
          "type": "string"
        },
        {
          "indexed": false,
          "internalType": "uint256",
          "name": "version",
          "type": "uint256"
        },
        {
          "indexed": false,
          "internalType": "uint256",
          "name": "timestamp",
          "type": "uint256"
        }
      ],
      "name": "CredentialUpdated",
      "type": "event"
    },
    {
      "inputs": [
        {
          "internalType": "string",
          "name": "credentialId",
          "type": "string"
        },
        {
          "internalType": "string",
          "name": "credentialHash",
          "type": "string"
        },
        {
          "internalType": "string",
          "name": "tenantId",
          "type": "string"
        }
      ],
      "name": "anchorCredential",
      "outputs": [],
      "stateMutability": "nonpayable",
      "type": "function"
    },
    {
      "inputs": [
        {
          "internalType": "string[]",
          "name": "credentialIds",
          "type": "string[]"
        },
        {
          "internalType": "string[]",
          "name": "credentialHashes",
          "type": "string[]"
        },
        {
          "internalType": "string",
          "name": "tenantId",
          "type": "string"
        }
      ],
      "name": "batchAnchorCredentials",
      "outputs": [],
      "stateMutability": "nonpayable",
      "type": "function"
    },
    {
      "inputs": [
        {
          "internalType": "string",
          "name": "",
          "type": "string"
        }
      ],
      "name": "credentialVersions",
      "outputs": [
        {
          "internalType": "uint256",
          "name": "",
          "type": "uint256"
        }
      ],
      "stateMutability": "view",
      "type": "function"
    },
    {
      "inputs": [
        {
          "internalType": "string",
          "name": "",
          "type": "string"
        }
      ],
      "name": "credentials",
      "outputs": [
        {
          "internalType": "string",
          "name": "credentialHash",
          "type": "string"
        },
        {
          "internalType": "uint256",
          "name": "timestamp",
          "type": "uint256"
        },
        {
          "internalType": "uint256",
          "name": "blockNumber",
          "type": "uint256"
        },
        {
          "internalType": "address",
          "name": "issuer",
          "type": "address"
        },
        {
          "internalType": "string",
          "name": "tenantId",
          "type": "string"
        },
        {
          "internalType": "bool",
          "name": "revoked",
          "type": "bool"
        },
        {
          "internalType": "string",
          "name": "revocationReason",
          "type": "string"
        },
        {
          "internalType": "uint256",
          "name": "revocationTimestamp",
          "type": "uint256"
        }
      ],
      "stateMutability": "view",
      "type": "function"
    },
    {
      "inputs": [
        {
          "internalType": "string",
          "name": "credentialId",
          "type": "string"
        }
      ],
      "name": "getCredential",
      "outputs": [
        {
          "internalType": "string",
          "name": "credentialHash",
          "type": "string"
        },
        {
          "internalType": "uint256",
          "name": "timestamp",
          "type": "uint256"
        },
        {
          "internalType": "address",
          "name": "issuer",
          "type": "address"
        },
        {
          "internalType": "bool",
          "name": "revoked",
          "type": "bool"
        },
        {
          "internalType": "uint256",
          "name": "version",
          "type": "uint256"
        }
      ],
      "stateMutability": "view",
      "type": "function"
    },
    {
      "inputs": [
        {
          "internalType": "address",
          "name": "issuer",
          "type": "address"
        }
      ],
      "name": "getIssuerCredentials",
      "outputs": [
        {
          "internalType": "string[]",
          "name": "",
          "type": "string[]"
        }
      ],
      "stateMutability": "view",
      "type": "function"
    },
    {
      "inputs": [
        {
          "internalType": "string",
          "name": "tenantId",
          "type": "string"
        }
      ],
      "name": "getTenantCredentials",
      "outputs": [
        {
          "internalType": "string[]",
          "name": "",
          "type": "string[]"
        }
      ],
      "stateMutability": "view",
      "type": "function"
    },
    {
      "inputs": [
        {
          "internalType": "string",
          "name": "credentialId",
          "type": "string"
        }
      ],
      "name": "isValid",
      "outputs": [
        {
          "internalType": "bool",
          "name": "",
          "type": "bool"
        }
      ],
      "stateMutability": "view",
      "type": "function"
    },
    {
      "inputs": [
        {
          "internalType": "address",
          "name": "",
          "type": "address"
        },
        {
          "internalType": "uint256",
          "name": "",
          "type": "uint256"
        }
      ],
      "name": "issuerCredentials",
      "outputs": [
        {
          "internalType": "string",
          "name": "",
          "type": "string"
        }
      ],
      "stateMutability": "view",
      "type": "function"
    },
    {
      "inputs": [
        {
          "internalType": "string",
          "name": "credentialId",
          "type": "string"
        },
        {
          "internalType": "string",
          "name": "reason",
          "type": "string"
        }
      ],
      "name": "revokeCredential",
      "outputs": [],
      "stateMutability": "nonpayable",
      "type": "function"
    },
    {
      "inputs": [
        {
          "internalType": "string",
          "name": "",
          "type": "string"
        },
        {
          "internalType": "uint256",
          "name": "",
          "type": "uint256"
        }
      ],
      "name": "tenantCredentials",
      "outputs": [
        {
          "internalType": "string",
          "name": "",
          "type": "string"
        }
      ],
      "stateMutability": "view",
      "type": "function"
    },
    {
      "inputs": [
        {
          "internalType": "string",
          "name": "credentialId",
          "type": "string"
        },
        {
          "internalType": "string",
          "name": "newHash",
          "type": "string"
        }
      ],
      "name": "updateCredential",
      "outputs": [],
      "stateMutability": "nonpayable",
      "type": "function"
    }
  ],
  "bytecode": "0x608060405234801561001057600080fd5b506117b0806100206000396000f3fe608060405234801561001057600080fd5b50600436106100b45760003560e01c80639eb10b92116100715780639eb10b9214610169578063bf4af9b114610189578063d091187f146101b0578063d8202ffb146101d4578063ef4d7c19146101e7578063f1dfaefb146101fa57600080fd5b80630be86da4146100b95780631abac44b146100ce57806322924727146100f757806349bda2df1461010a5780635434742b1461011d57806391d481c814610156575b600080fd5b6100cc6100c736600461119d565b61021d565b005b6100e16100dc366004611241565b6102d4565b6040516100ee91906112bb565b60405180910390f35b6100cc6101053660046112d5565b61038d565b6100cc610118366004611330565b610606565b61014861012b366004611394565b805160208183018101805160018252928201919093012091525481565b6040519081526020016100ee565b6100cc610164366004611330565b6107c4565b61017c610177366004611394565b610967565b6040516100ee91906113d1565b61019c610197366004611394565b610a5e565b6040516100ee989796959493929190611433565b6101c36101be366004611394565b610c59565b6040516100ee9594939291906114aa565b61017c6101e23660046114ea565b610ed3565b6100e16101f5366004611505565b610fb7565b61020d610208366004611394565b610fe2565b60405190151581526020016100ee565b81518351146102735760405162461bcd60e51b815260206004820152601c60248201527f417272617973206d75737420686176652073616d65206c656e6774680000000060448201526064015b60405180910390fd5b60005b83518110156102ce576102bc8482815181106102945761029461154a565b60200260200101518483815181106102ae576102ae61154a565b60200260200101518461038d565b806102c681611560565b915050610276565b50505050565b600260205281600052604060002081815481106102f057600080fd5b9060005260206000200160009150915050805461030c90611587565b80601f016020809104026020016040519081016040528092919081815260200182805461033890611587565b80156103855780601f1061035a57610100808354040283529160200191610385565b820191906000526020600020905b81548152906001019060200180831161036857829003601f168201915b505050505081565b60008360405161039d91906115c1565b90815260405190819003602001902080546103b790611587565b1590506104065760405162461bcd60e51b815260206004820152601960248201527f43726564656e7469616c20616c72656164792065786973747300000000000000604482015260640161026a565b604051806101000160405280838152602001428152602001438152602001336001600160a01b03168152602001828152602001600015158152602001604051806020016040528060008152508152602001600081525060008460405161046c91906115c1565b90815260405190819003602001902081518190610489908261162c565b50602082015160018201556040820151600282015560608201516003820180546001600160a01b0319166001600160a01b03909216919091179055608082015160048201906104d8908261162c565b5060a082015160058201805460ff191691151591909117905560c08201516006820190610505908261162c565b5060e082015181600701559050506001808460405161052491906115c1565b90815260408051602092819003830190209290925533600090815260028252918220805460018101825590835291200161055e848261162c565b5060038160405161056f91906115c1565b90815260405160209181900382019020805460018101825560009182529190200161059a848261162c565b50806040516105a991906115c1565b6040519081900381209033906105c09086906115c1565b60405180910390207fea0f0c0c16d25f7b4a1baff4522657eeb51f9b21cb54c9583cbbb15db4f3602785426040516105f99291906116ec565b60405180910390a4505050565b81336001600160a01b031660008260405161062191906115c1565b908152604051908190036020019020600301546001600160a01b03161461065a5760405162461bcd60e51b815260040161026a9061170e565b8260008160405161066b91906115c1565b9081526040519081900360200190206005015460ff16156106ce5760405162461bcd60e51b815260206004820152601b60248201527f43726564656e7469616c20686173206265656e207265766f6b65640000000000604482015260640161026a565b826000856040516106df91906115c1565b908152604051908190036020019020906106f9908261162c565b504260008560405161070b91906115c1565b90815260200160405180910390206001018190555060018460405161073091906115c1565b908152604051908190036020019020805490600061074d83611560565b91905055508360405161076091906115c1565b60405180910390207f3cb684e3b174d58f2a186133c034adb1e49ca5e8ef5e2a9379ad93d0906db3088460018760405161079a91906115c1565b908152604051908190036020018120546107b692914290611755565b60405180910390a250505050565b81336001600160a01b03166000826040516107df91906115c1565b908152604051908190036020019020600301546001600160a01b0316146108185760405162461bcd60e51b815260040161026a9061170e565b6000808460405161082991906115c1565b908152604051908190036020019020805461084390611587565b9050116108895760405162461bcd60e51b815260206004820152601460248201527310dc9959195b9d1a585b081b9bdd08199bdd5b9960621b604482015260640161026a565b600160008460405161089b91906115c1565b908152604051908190036020018120600501805492151560ff199093169290921790915582906000906108cf9086906115c1565b908152602001604051809103902060060190816108ec919061162c565b50426000846040516108fe91906115c1565b9081526040519081900360200181206007019190915533906109219085906115c1565b60405180910390207f06b8193728b596ba0da973144797df701b786851236cce608a47bb346f9d0d64844260405161095a9291906116ec565b60405180910390a3505050565b606060038260405161097991906115c1565b9081526020016040518091039020805480602002602001604051908101604052809291908181526020016000905b82821015610a535783829060005260206000200180546109c690611587565b80601f01602080910402602001604051908101604052809291908181526020018280546109f290611587565b8015610a3f5780601f10610a1457610100808354040283529160200191610a3f565b820191906000526020600020905b815481529060010190602001808311610a2257829003601f168201915b5050505050815260200190600101906109a7565b505050509050919050565b8051602081830181018051600082529282019190930120915280548190610a8490611587565b80601f0160208091040260200160405190810160405280929190818152602001828054610ab090611587565b8015610afd5780601f10610ad257610100808354040283529160200191610afd565b820191906000526020600020905b815481529060010190602001808311610ae057829003601f168201915b505050600184015460028501546003860154600487018054969793969295506001600160a01b03909116935090610b3390611587565b80601f0160208091040260200160405190810160405280929190818152602001828054610b5f90611587565b8015610bac5780601f10610b8157610100808354040283529160200191610bac565b820191906000526020600020905b815481529060010190602001808311610b8f57829003601f168201915b5050506005840154600685018054949560ff909216949193509150610bd090611587565b80601f0160208091040260200160405190810160405280929190818152602001828054610bfc90611587565b8015610c495780601f10610c1e57610100808354040283529160200191610c49565b820191906000526020600020905b815481529060010190602001808311610c2c57829003601f168201915b5050505050908060070154905088565b606060008060008060008087604051610c7291906115c1565b908152602001604051809103902060405180610100016040529081600082018054610c9c90611587565b80601f0160208091040260200160405190810160405280929190818152602001828054610cc890611587565b8015610d155780601f10610cea57610100808354040283529160200191610d15565b820191906000526020600020905b815481529060010190602001808311610cf857829003601f168201915b5050509183525050600182015460208201526002820154604082015260038201546001600160a01b03166060820152600482018054608090920191610d5990611587565b80601f0160208091040260200160405190810160405280929190818152602001828054610d8590611587565b8015610dd25780601f10610da757610100808354040283529160200191610dd2565b820191906000526020600020905b815481529060010190602001808311610db557829003601f168201915b5050509183525050600582015460ff1615156020820152600682018054604090920191610dfe90611587565b80601f0160208091040260200160405190810160405280929190818152602001828054610e2a90611587565b8015610e775780601f10610e4c57610100808354040283529160200191610e77565b820191906000526020600020905b815481529060010190602001808311610e5a57829003601f168201915b5050505050815260200160078201548152505090508060000151816020015182606001518360a0015160018b604051610eb091906115c1565b908152602001604051809103902054955095509550955095505091939590929450565b6001600160a01b0381166000908152600260209081526040808320805482518185028101850190935280835260609492939192909184015b82821015610a53578382906000526020600020018054610f2a90611587565b80601f0160208091040260200160405190810160405280929190818152602001828054610f5690611587565b8015610fa35780601f10610f7857610100808354040283529160200191610fa3565b820191906000526020600020905b815481529060010190602001808311610f8657829003601f168201915b505050505081526020019060010190610f0b565b815160208184018101805160038252928201918501919091209190528054829081106102f057600080fd5b600080600083604051610ff591906115c1565b908152604051908190036020019020805461100f90611587565b9050118015611041575060008260405161102991906115c1565b9081526040519081900360200190206005015460ff16155b92915050565b634e487b7160e01b600052604160045260246000fd5b604051601f8201601f1916810167ffffffffffffffff8111828210171561108657611086611047565b604052919050565b600082601f83011261109f57600080fd5b813567ffffffffffffffff8111156110b9576110b9611047565b6110cc601f8201601f191660200161105d565b8181528460208386010111156110e157600080fd5b816020850160208301376000918101602001919091529392505050565b600082601f83011261110f57600080fd5b8135602067ffffffffffffffff8083111561112c5761112c611047565b8260051b61113b83820161105d565b938452858101830193838101908886111561115557600080fd5b84880192505b85831015611191578235848111156111735760008081fd5b6111818a87838c010161108e565b835250918401919084019061115b565b98975050505050505050565b6000806000606084860312156111b257600080fd5b833567ffffffffffffffff808211156111ca57600080fd5b6111d6878388016110fe565b945060208601359150808211156111ec57600080fd5b6111f8878388016110fe565b9350604086013591508082111561120e57600080fd5b5061121b8682870161108e565b9150509250925092565b80356001600160a01b038116811461123c57600080fd5b919050565b6000806040838503121561125457600080fd5b61125d83611225565b946020939093013593505050565b60005b8381101561128657818101518382015260200161126e565b50506000910152565b600081518084526112a781602086016020860161126b565b601f01601f19169290920160200192915050565b6020815260006112ce602083018461128f565b9392505050565b6000806000606084860312156112ea57600080fd5b833567ffffffffffffffff8082111561130257600080fd5b61130e8783880161108e565b9450602086013591508082111561132457600080fd5b6111f88783880161108e565b6000806040838503121561134357600080fd5b823567ffffffffffffffff8082111561135b57600080fd5b6113678683870161108e565b9350602085013591508082111561137d57600080fd5b5061138a8582860161108e565b9150509250929050565b6000602082840312156113a657600080fd5b813567ffffffffffffffff8111156113bd57600080fd5b6113c98482850161108e565b949350505050565b6000602080830181845280855180835260408601915060408160051b870101925083870160005b8281101561142657603f1988860301845261141485835161128f565b945092850192908501906001016113f8565b5092979650505050505050565b60006101008083526114478184018c61128f565b602084018b9052604084018a90526001600160a01b038916606085015283810360808501529050611478818861128f565b905085151560a084015282810360c0840152611494818661128f565b9150508260e08301529998505050505050505050565b60a0815260006114bd60a083018861128f565b6020830196909652506001600160a01b039390931660408401529015156060830152608090910152919050565b6000602082840312156114fc57600080fd5b6112ce82611225565b6000806040838503121561151857600080fd5b823567ffffffffffffffff81111561152f57600080fd5b61153b8582860161108e565b95602094909401359450505050565b634e487b7160e01b600052603260045260246000fd5b60006001820161158057634e487b7160e01b600052601160045260246000fd5b5060010190565b600181811c9082168061159b57607f821691505b6020821081036115bb57634e487b7160e01b600052602260045260246000fd5b50919050565b600082516115d381846020870161126b565b9190910192915050565b601f82111561162757600081815260208120601f850160051c810160208610156116045750805b601f850160051c820191505b8181101561162357828155600101611610565b5050505b505050565b815167ffffffffffffffff81111561164657611646611047565b61165a816116548454611587565b846115dd565b602080601f83116001811461168f57600084156116775750858301515b600019600386901b1c1916600185901b178555611623565b600085815260208120601f198616915b828110156116be5788860151825594840194600190910190840161169f565b50858210156116dc5787850151600019600388901b60f8161c191681555b5050505050600190811b01905550565b6040815260006116ff604083018561128f565b90508260208301529392505050565b60208082526027908201527f4f6e6c7920746865206973737565722063616e20706572666f726d20746869736040820152661030b1ba34b7b760c91b606082015260800190565b606081526000611768606083018661128f565b6020830194909452506040015291905056fea2646970667358221220e6b56d11172e667af2452710a6ac5627c70718555c346d4fe64f0a115c75313d64736f6c63430008130033",
  "linkReferences": {},
  "deployedLinkReferences": {}
}