{
  "_format": "hh-sol-artifact-1",
  "contractName": "Treasury",
  "sourceName": "app/contracts/dao/Treasury.sol",
  "abi": [
    {
      "inputs": [],
      "stateMutability": "nonpayable",
      "type": "constructor"
    },
    {
      "anonymous": false,
      "inputs": [
        {
          "indexed": true,
          "internalType": "address",
          "name": "from",
          "type": "address"
        },
        {
          "indexed": false,
          "internalType": "uint256",
          "name": "amount",
          "type": "uint256"
        }
      ],
      "name": "FundsDeposited",
      "type": "event"
    },
    {
      "anonymous": false,
      "inputs": [
        {
          "indexed": true,
          "internalType": "address",
          "name": "previousOwner",
          "type": "address"
        },
        {
          "indexed": true,
          "internalType": "address",
          "name": "newOwner",
          "type": "address"
        }
      ],
      "name": "OwnershipTransferred",
      "type": "event"
    },
    {
      "anonymous": false,
      "inputs": [
        {
          "indexed": true,
          "internalType": "address",
          "name": "target",
          "type": "address"
        },
        {
          "indexed": false,
          "internalType": "uint256",
          "name": "value",
          "type": "uint256"
        },
        {
          "indexed": false,
          "internalType": "bytes",
          "name": "data",
          "type": "bytes"
        }
      ],
      "name": "TransactionExecuted",
      "type": "event"
    },
    {
      "stateMutability": "payable",
      "type": "fallback"
    },
    {
      "inputs": [
        {
          "internalType": "address",
          "name": "target",
          "type": "address"
        },
        {
          "internalType": "uint256",
          "name": "value",
          "type": "uint256"
        },
        {
          "internalType": "bytes",
          "name": "data",
          "type": "bytes"
        }
      ],
      "name": "executeTransaction",
      "outputs": [],
      "stateMutability": "nonpayable",
      "type": "function"
    },
    {
      "inputs": [],
      "name": "owner",
      "outputs": [
        {
          "internalType": "address",
          "name": "",
          "type": "address"
        }
      ],
      "stateMutability": "view",
      "type": "function"
    },
    {
      "inputs": [],
      "name": "renounceOwnership",
      "outputs": [],
      "stateMutability": "nonpayable",
      "type": "function"
    },
    {
      "inputs": [
        {
          "internalType": "address",
          "name": "newOwner",
          "type": "address"
        }
      ],
      "name": "transferOwnership",
      "outputs": [],
      "stateMutability": "nonpayable",
      "type": "function"
    },
    {
      "stateMutability": "payable",
      "type": "receive"
    }
  ],
  "bytecode": "0x608060405234801561001057600080fd5b5061001a3361001f565b61006f565b600080546001600160a01b038381166001600160a01b0319831681178455604051919092169283917f8be0079c531659141344cd1fd0a4f28419497f9722a3daafe3b4186f6b6457e09190a35050565b6104b68061007e6000396000f3fe6080604052600436106100435760003560e01c80633f579f42146100b2578063715018a6146100d45780638da5cb5b146100e9578063f2fde38b1461011557610080565b366100805760405134815233907f543ba50a5eec5e6178218e364b1d0f396157b3c8fa278522c2cb7fd99407d474906020015b60405180910390a2005b60405134815233907f543ba50a5eec5e6178218e364b1d0f396157b3c8fa278522c2cb7fd99407d47490602001610076565b3480156100be57600080fd5b506100d26100cd366004610391565b610135565b005b3480156100e057600080fd5b506100d261023e565b3480156100f557600080fd5b50600054604080516001600160a01b039092168252519081900360200190f35b34801561012157600080fd5b506100d2610130366004610418565b610252565b61013d6102cb565b6000846001600160a01b031684848460405161015a92919061043a565b60006040518083038185875af1925050503d8060008114610197576040519150601f19603f3d011682016040523d82523d6000602084013e61019c565b606091505b50509050806101f25760405162461bcd60e51b815260206004820152601c60248201527f54726561737572793a205472616e73616374696f6e206661696c65640000000060448201526064015b60405180910390fd5b846001600160a01b03167f47d99ad340f52da66535aff7e10da1ceb85a32bcbd9fa1c42314d194545e14d285858560405161022f9392919061044a565b60405180910390a25050505050565b6102466102cb565b6102506000610325565b565b61025a6102cb565b6001600160a01b0381166102bf5760405162461bcd60e51b815260206004820152602660248201527f4f776e61626c653a206e6577206f776e657220697320746865207a65726f206160448201526564647265737360d01b60648201526084016101e9565b6102c881610325565b50565b6000546001600160a01b031633146102505760405162461bcd60e51b815260206004820181905260248201527f4f776e61626c653a2063616c6c6572206973206e6f7420746865206f776e657260448201526064016101e9565b600080546001600160a01b038381166001600160a01b0319831681178455604051919092169283917f8be0079c531659141344cd1fd0a4f28419497f9722a3daafe3b4186f6b6457e09190a35050565b80356001600160a01b038116811461038c57600080fd5b919050565b600080600080606085870312156103a757600080fd5b6103b085610375565b935060208501359250604085013567ffffffffffffffff808211156103d457600080fd5b818701915087601f8301126103e857600080fd5b8135818111156103f757600080fd5b88602082850101111561040957600080fd5b95989497505060200194505050565b60006020828403121561042a57600080fd5b61043382610375565b9392505050565b8183823760009101908152919050565b83815260406020820152816040820152818360608301376000818301606090810191909152601f909201601f191601019291505056fea2646970667358221220e5c8369a39d05b6eef29bec97462082d718fb8ab38d584ea0e683c75b62d4d1964736f6c63430008130033",
  "linkReferences": {},
  "deployedLinkReferences": {}
}