{
  "_format": "hh-sol-artifact-1",
  "contractName": "SoulBoundCredentialToken",
  "sourceName": "app/contracts/SoulBoundToken.sol",
  "abi": [
    {
      "inputs": [],
      "stateMutability": "nonpayable",
      "type": "constructor"
    },
    {
      "inputs": [],
      "name": "CredentialExists",
      "type": "error"
    },
    {
      "inputs": [],
      "name": "NotAuthorized",
      "type": "error"
    },
    {
      "inputs": [],
      "name": "Soulbound",
      "type": "error"
    },
    {
      "inputs": [],
      "name": "TokenNotFound",
      "type": "error"
    },
    {
      "inputs": [],
      "name": "TokenRevoked",
      "type": "error"
    },
    {
      "anonymous": false,
      "inputs": [
        {
          "indexed": true,
          "internalType": "uint256",
          "name": "tokenId",
          "type": "uint256"
        },
        {
          "indexed": true,
          "internalType": "address",
          "name": "burnedBy",
          "type": "address"
        }
      ],
      "name": "Burned",
      "type": "event"
    },
    {
      "anonymous": false,
      "inputs": [
        {
          "indexed": true,
          "internalType": "uint256",
          "name": "tokenId",
          "type": "uint256"
        },
        {
          "indexed": true,
          "internalType": "address",
          "name": "soul",
          "type": "address"
        },
        {
          "indexed": true,
          "internalType": "address",
          "name": "issuer",
          "type": "address"
        },
        {
          "indexed": false,
          "internalType": "bytes32",
          "name": "credentialHash",
          "type": "bytes32"
        }
      ],
      "name": "Issued",
      "type": "event"
    },
    {
      "anonymous": false,
      "inputs": [
        {
          "indexed": true,
          "internalType": "address",
          "name": "issuer",
          "type": "address"
        }
      ],
      "name": "IssuerAuthorized",
      "type": "event"
    },
    {
      "anonymous": false,
      "inputs": [
        {
          "indexed": true,
          "internalType": "address",
          "name": "issuer",
          "type": "address"
        }
      ],
      "name": "IssuerDeauthorized",
      "type": "event"
    },
    {
      "anonymous": false,
      "inputs": [
        {
          "indexed": false,
          "internalType": "uint256",
          "name": "tokenId",
          "type": "uint256"
        }
      ],
      "name": "Locked",
      "type": "event"
    },
    {
      "anonymous": false,
      "inputs": [
        {
          "indexed": true,
          "internalType": "address",
          "name": "previousOwner",
          "type": "address"
        },
        {
          "indexed": true,
          "internalType": "address",
          "name": "newOwner",
          "type": "address"
        }
      ],
      "name": "OwnershipTransferred",
      "type": "event"
    },
    {
      "anonymous": false,
      "inputs": [
        {
          "indexed": true,
          "internalType": "uint256",
          "name": "tokenId",
          "type": "uint256"
        },
        {
          "indexed": true,
          "internalType": "address",
          "name": "revokedBy",
          "type": "address"
        },
        {
          "indexed": false,
          "internalType": "string",
          "name": "reason",
          "type": "string"
        }
      ],
      "name": "Revoked",
      "type": "event"
    },
    {
      "anonymous": false,
      "inputs": [
        {
          "indexed": false,
          "internalType": "uint256",
          "name": "tokenId",
          "type": "uint256"
        }
      ],
      "name": "Unlocked",
      "type": "event"
    },
    {
      "inputs": [
        {
          "internalType": "address",
          "name": "issuer",
          "type": "address"
        }
      ],
      "name": "authorizeIssuer",
      "outputs": [],
      "stateMutability": "nonpayable",
      "type": "function"
    },
    {
      "inputs": [
        {
          "internalType": "address",
          "name": "",
          "type": "address"
        }
      ],
      "name": "authorizedIssuers",
      "outputs": [
        {
          "internalType": "bool",
          "name": "",
          "type": "bool"
        }
      ],
      "stateMutability": "view",
      "type": "function"
    },
    {
      "inputs": [
        {
          "internalType": "uint256",
          "name": "tokenId",
          "type": "uint256"
        }
      ],
      "name": "burn",
      "outputs": [],
      "stateMutability": "nonpayable",
      "type": "function"
    },
    {
      "inputs": [
        {
          "internalType": "uint256",
          "name": "",
          "type": "uint256"
        }
      ],
      "name": "burnAuthorization",
      "outputs": [
        {
          "internalType": "enum SoulBoundCredentialToken.BurnAuth",
          "name": "",
          "type": "uint8"
        }
      ],
      "stateMutability": "view",
      "type": "function"
    },
    {
      "inputs": [
        {
          "internalType": "bytes32",
          "name": "",
          "type": "bytes32"
        }
      ],
      "name": "credentialToToken",
      "outputs": [
        {
          "internalType": "uint256",
          "name": "",
          "type": "uint256"
        }
      ],
      "stateMutability": "view",
      "type": "function"
    },
    {
      "inputs": [
        {
          "internalType": "address",
          "name": "issuer",
          "type": "address"
        }
      ],
      "name": "deauthorizeIssuer",
      "outputs": [],
      "stateMutability": "nonpayable",
      "type": "function"
    },
    {
      "inputs": [
        {
          "internalType": "uint256",
          "name": "tokenId",
          "type": "uint256"
        }
      ],
      "name": "getToken",
      "outputs": [
        {
          "components": [
            {
              "internalType": "uint256",
              "name": "tokenId",
              "type": "uint256"
            },
            {
              "internalType": "address",
              "name": "soul",
              "type": "address"
            },
            {
              "internalType": "address",
              "name": "issuer",
              "type": "address"
            },
            {
              "internalType": "bytes32",
              "name": "credentialHash",
              "type": "bytes32"
            },
            {
              "internalType": "string",
              "name": "metadataURI",
              "type": "string"
            },
            {
              "internalType": "uint256",
              "name": "issuedAt",
              "type": "uint256"
            },
            {
              "internalType": "bool",
              "name": "revoked",
              "type": "bool"
            },
            {
              "internalType": "string",
              "name": "revocationReason",
              "type": "string"
            }
          ],
          "internalType": "struct SoulBoundCredentialToken.SoulBoundToken",
          "name": "",
          "type": "tuple"
        }
      ],
      "stateMutability": "view",
      "type": "function"
    },
    {
      "inputs": [
        {
          "internalType": "address",
          "name": "soul",
          "type": "address"
        },
        {
          "internalType": "bytes32",
          "name": "credentialHash",
          "type": "bytes32"
        },
        {
          "internalType": "string",
          "name": "metadataURI",
          "type": "string"
        },
        {
          "internalType": "enum SoulBoundCredentialToken.BurnAuth",
          "name": "_burnAuth",
          "type": "uint8"
        }
      ],
      "name": "issue",
      "outputs": [
        {
          "internalType": "uint256",
          "name": "",
          "type": "uint256"
        }
      ],
      "stateMutability": "nonpayable",
      "type": "function"
    },
    {
      "inputs": [
        {
          "internalType": "uint256",
          "name": "tokenId",
          "type": "uint256"
        }
      ],
      "name": "locked",
      "outputs": [
        {
          "internalType": "bool",
          "name": "",
          "type": "bool"
        }
      ],
      "stateMutability": "view",
      "type": "function"
    },
    {
      "inputs": [],
      "name": "owner",
      "outputs": [
        {
          "internalType": "address",
          "name": "",
          "type": "address"
        }
      ],
      "stateMutability": "view",
      "type": "function"
    },
    {
      "inputs": [],
      "name": "renounceOwnership",
      "outputs": [],
      "stateMutability": "nonpayable",
      "type": "function"
    },
    {
      "inputs": [
        {
          "internalType": "uint256",
          "name": "tokenId",
          "type": "uint256"
        },
        {
          "internalType": "string",
          "name": "reason",
          "type": "string"
        }
      ],
      "name": "revoke",
      "outputs": [],
      "stateMutability": "nonpayable",
      "type": "function"
    },
    {
      "inputs": [
        {
          "internalType": "address",
          "name": "",
          "type": "address"
        },
        {
          "internalType": "address",
          "name": "",
          "type": "address"
        },
        {
          "internalType": "uint256",
          "name": "",
          "type": "uint256"
        }
      ],
      "name": "safeTransferFrom",
      "outputs": [],
      "stateMutability": "pure",
      "type": "function"
    },
    {
      "inputs": [
        {
          "internalType": "address",
          "name": "",
          "type": "address"
        },
        {
          "internalType": "address",
          "name": "",
          "type": "address"
        },
        {
          "internalType": "uint256",
          "name": "",
          "type": "uint256"
        },
        {
          "internalType": "bytes",
          "name": "",
          "type": "bytes"
        }
      ],
      "name": "safeTransferFrom",
      "outputs": [],
      "stateMutability": "pure",
      "type": "function"
    },
    {
      "inputs": [
        {
          "internalType": "address",
          "name": "",
          "type": "address"
        },
        {
          "internalType": "uint256",
          "name": "",
          "type": "uint256"
        }
      ],
      "name": "soulTokens",
      "outputs": [
        {
          "internalType": "uint256",
          "name": "",
          "type": "uint256"
        }
      ],
      "stateMutability": "view",
      "type": "function"
    },
    {
      "inputs": [
        {
          "internalType": "uint256",
          "name": "",
          "type": "uint256"
        }
      ],
      "name": "tokens",
      "outputs": [
        {
          "internalType": "uint256",
          "name": "tokenId",
          "type": "uint256"
        },
        {
          "internalType": "address",
          "name": "soul",
          "type": "address"
        },
        {
          "internalType": "address",
          "name": "issuer",
          "type": "address"
        },
        {
          "internalType": "bytes32",
          "name": "credentialHash",
          "type": "bytes32"
        },
        {
          "internalType": "string",
          "name": "metadataURI",
          "type": "string"
        },
        {
          "internalType": "uint256",
          "name": "issuedAt",
          "type": "uint256"
        },
        {
          "internalType": "bool",
          "name": "revoked",
          "type": "bool"
        },
        {
          "internalType": "string",
          "name": "revocationReason",
          "type": "string"
        }
      ],
      "stateMutability": "view",
      "type": "function"
    },
    {
      "inputs": [
        {
          "internalType": "address",
          "name": "soul",
          "type": "address"
        }
      ],
      "name": "tokensOf",
      "outputs": [
        {
          "internalType": "uint256[]",
          "name": "",
          "type": "uint256[]"
        }
      ],
      "stateMutability": "view",
      "type": "function"
    },
    {
      "inputs": [],
      "name": "totalSupply",
      "outputs": [
        {
          "internalType": "uint256",
          "name": "",
          "type": "uint256"
        }
      ],
      "stateMutability": "view",
      "type": "function"
    },
    {
      "inputs": [
        {
          "internalType": "address",
          "name": "",
          "type": "address"
        },
        {
          "internalType": "address",
          "name": "",
          "type": "address"
        },
        {
          "internalType": "uint256",
          "name": "",
          "type": "uint256"
        }
      ],
      "name": "transferFrom",
      "outputs": [],
      "stateMutability": "pure",
      "type": "function"
    },
    {
      "inputs": [
        {
          "internalType": "address",
          "name": "newOwner",
          "type": "address"
        }
      ],
      "name": "transferOwnership",
      "outputs": [],
      "stateMutability": "nonpayable",
      "type": "function"
    },
    {
      "inputs": [
        {
          "internalType": "address",
          "name": "soul",
          "type": "address"
        },
        {
          "internalType": "bytes32",
          "name": "credentialHash",
          "type": "bytes32"
        }
      ],
      "name": "verify",
      "outputs": [
        {
          "internalType": "bool",
          "name": "valid",
          "type": "bool"
        },
        {
          "internalType": "uint256",
          "name": "tokenId",
          "type": "uint256"
        }
      ],
      "stateMutability": "view",
      "type": "function"
    }
  ],
  "bytecode": "0x608060405234801561001057600080fd5b5061001a33610039565b336000908152600560205260409020805460ff19166001179055610089565b600080546001600160a01b038381166001600160a01b0319831681178455604051919092169283917f8be0079c531659141344cd1fd0a4f28419497f9722a3daafe3b4186f6b6457e09190a35050565b611a50806100986000396000f3fe608060405234801561001057600080fd5b50600436106101375760003560e01c80635a3f2672116100b8578063e4b50cb81161007c578063e4b50cb8146102b8578063eb929ad5146102d8578063ed093772146102eb578063f2fde38b1461031b578063f731fa0f1461032e578063fe4170f31461035157600080fd5b80635a3f267214610229578063715018a6146102495780638da5cb5b14610251578063b45a3c0e1461026c578063b88d4fde146102aa57600080fd5b806342842e0e116100ff57806342842e0e1461019457806342966c68146101bc578063436693d5146101cf5780634f64b2be146101e257806356dabc1c1461020957600080fd5b80630dd5ee1b1461013c57806315dbe6531461016b57806318160ddd1461018c57806323b872dd146101945780633a71daf4146101a9575b600080fd5b61014f61014a3660046113fb565b610364565b6040805192151583526020830191909152015b60405180910390f35b61017e6101793660046113fb565b610549565b604051908152602001610162565b61017e61057a565b6101a76101a2366004611425565b61058a565b005b6101a76101b7366004611461565b6105a3565b6101a76101ca366004611483565b6105f4565b6101a76101dd366004611461565b610a8f565b6101f56101f0366004611483565b610ae3565b6040516101629897969594939291906114e2565b61017e610217366004611483565b60046020526000908152604090205481565b61023c610237366004611461565b610c4c565b604051610162919061154d565b6101a7610cb8565b6000546040516001600160a01b039091168152602001610162565b61029a61027a366004611483565b6000908152600260205260409020600101546001600160a01b0316151590565b6040519015158152602001610162565b6101a76101a236600461161d565b6102cb6102c6366004611483565b610ccc565b6040516101629190611699565b6101a76102e636600461175d565b610f05565b61030e6102f9366004611483565b60066020526000908152604090205460ff1681565b60405161016291906117ba565b6101a7610329366004611461565b610ffb565b61029a61033c366004611461565b60056020526000908152604090205460ff1681565b61017e61035f3660046117e2565b611079565b60008181526004602052604081205480820361038557506000905080610542565b60008181526002602081815260408084208151610100810183528154815260018201546001600160a01b03908116948201949094529381015490921690830152600381015460608301526004810180546080840191906103e490611850565b80601f016020809104026020016040519081016040528092919081815260200182805461041090611850565b801561045d5780601f106104325761010080835404028352916020019161045d565b820191906000526020600020905b81548152906001019060200180831161044057829003601f168201915b505050918352505060058201546020820152600682015460ff161515604082015260078201805460609092019161049390611850565b80601f01602080910402602001604051908101604052809291908181526020018280546104bf90611850565b801561050c5780601f106104e15761010080835404028352916020019161050c565b820191906000526020600020905b8154815290600101906020018083116104ef57829003601f168201915b5050505050815250509050846001600160a01b031681602001516001600160a01b031614801561053e57508060c00151155b9250505b9250929050565b6003602052816000526040600020818154811061056557600080fd5b90600052602060002001600091509150505481565b600061058560015490565b905090565b60405163a4420a9560e01b815260040160405180910390fd5b6105ab6112e7565b6001600160a01b038116600081815260056020526040808220805460ff19169055517f8f3e6dced744d75443e2f2eb94962b368491dc80ec07cd3a3f7896069b6c452c9190a250565b60008181526002602052604090206001015481906001600160a01b031661062e57604051630cbdb7b360e41b815260040160405180910390fd5b60008281526002602081815260408084208151610100810183528154815260018201546001600160a01b039081169482019490945293810154909216908301526003810154606083015260048101805460808401919061068d90611850565b80601f01602080910402602001604051908101604052809291908181526020018280546106b990611850565b80156107065780601f106106db57610100808354040283529160200191610706565b820191906000526020600020905b8154815290600101906020018083116106e957829003601f168201915b505050918352505060058201546020820152600682015460ff161515604082015260078201805460609092019161073c90611850565b80601f016020809104026020016040519081016040528092919081815260200182805461076890611850565b80156107b55780601f1061078a576101008083540402835291602001916107b5565b820191906000526020600020905b81548152906001019060200180831161079857829003601f168201915b5050509190925250505060008481526006602052604081205491925060ff90911690808260038111156107ea576107ea6117a4565b14801561080c575082602001516001600160a01b0316336001600160a01b0316145b15610819575060016108d4565b600182600381111561082d5761082d6117a4565b14801561084f575082604001516001600160a01b0316336001600160a01b0316145b1561085c575060016108d4565b6002826003811115610870576108706117a4565b1480156108b1575082602001516001600160a01b0316336001600160a01b031614806108b1575082604001516001600160a01b0316336001600160a01b0316145b156108be575060016108d4565b6000546001600160a01b031633036108d4575060015b806108f25760405163ea8e4eb560e01b815260040160405180910390fd5b6020808401516001600160a01b03166000908152600390915260408120905b81548110156109c5578682828154811061092d5761092d611884565b9060005260206000200154036109b3578154829061094d906001906118b0565b8154811061095d5761095d611884565b906000526020600020015482828154811061097a5761097a611884565b906000526020600020018190555081805480610998576109986118c9565b600190038181906000526020600020016000905590556109c5565b806109bd816118df565b915050610911565b506060840151600090815260046020818152604080842084905589845260029182905283208381556001810180546001600160a01b03199081169091559181018054909216909155600381018390559190610a2290830182611391565b60006005830181905560068301805460ff19169055610a45906007840190611391565b5050600086815260066020526040808220805460ff1916905551339188917fe861e0b12c283de7ca3f4d68d33f3bfc6fc01e4896cddf05e52b8f2a1e548e249190a3505050505050565b610a976112e7565b6001600160a01b038116600081815260056020526040808220805460ff19166001179055517f8b4006ca14f23d4e7aa8d120d1ab7c3761d650eefac1a5d6732dbea94b54ea249190a250565b60026020819052600091825260409091208054600182015492820154600383015460048401805493956001600160a01b0390811695931693919291610b2790611850565b80601f0160208091040260200160405190810160405280929190818152602001828054610b5390611850565b8015610ba05780601f10610b7557610100808354040283529160200191610ba0565b820191906000526020600020905b815481529060010190602001808311610b8357829003601f168201915b50505050600583015460068401546007850180549495929460ff909216935090610bc990611850565b80601f0160208091040260200160405190810160405280929190818152602001828054610bf590611850565b8015610c425780601f10610c1757610100808354040283529160200191610c42565b820191906000526020600020905b815481529060010190602001808311610c2557829003601f168201915b5050505050905088565b6001600160a01b038116600090815260036020908152604091829020805483518184028101840190945280845260609392830182828015610cac57602002820191906000526020600020905b815481526020019060010190808311610c98575b50505050509050919050565b610cc06112e7565b610cca6000611341565b565b610d2b6040518061010001604052806000815260200160006001600160a01b0316815260200160006001600160a01b03168152602001600080191681526020016060815260200160008152602001600015158152602001606081525090565b60008281526002602052604090206001015482906001600160a01b0316610d6557604051630cbdb7b360e41b815260040160405180910390fd5b6000838152600260208181526040928390208351610100810185528154815260018201546001600160a01b0390811693820193909352928101549091169282019290925260038201546060820152600482018054919291608084019190610dcb90611850565b80601f0160208091040260200160405190810160405280929190818152602001828054610df790611850565b8015610e445780601f10610e1957610100808354040283529160200191610e44565b820191906000526020600020905b815481529060010190602001808311610e2757829003601f168201915b505050918352505060058201546020820152600682015460ff1615156040820152600782018054606090920191610e7a90611850565b80601f0160208091040260200160405190810160405280929190818152602001828054610ea690611850565b8015610ef35780601f10610ec857610100808354040283529160200191610ef3565b820191906000526020600020905b815481529060010190602001808311610ed657829003601f168201915b50505050508152505091505b50919050565b60008281526002602052604090206001015482906001600160a01b0316610f3f57604051630cbdb7b360e41b815260040160405180910390fd5b6000838152600260208190526040909120908101546001600160a01b03163314801590610f7757506000546001600160a01b03163314155b15610f955760405163ea8e4eb560e01b815260040160405180910390fd5b60068101805460ff1916600117905560078101610fb28482611947565b50336001600160a01b0316847f4f7fe18b44470d74d3fdef958bbdf35162e8b0c84f15392a58115fb9e6145a3185604051610fed9190611a07565b60405180910390a350505050565b6110036112e7565b6001600160a01b03811661106d5760405162461bcd60e51b815260206004820152602660248201527f4f776e61626c653a206e6577206f776e657220697320746865207a65726f206160448201526564647265737360d01b60648201526084015b60405180910390fd5b61107681611341565b50565b3360009081526005602052604081205460ff161580156110a457506000546001600160a01b03163314155b156110c25760405163ea8e4eb560e01b815260040160405180910390fd5b600084815260046020526040902054156110ef57604051632a8fa8ab60e21b815260040160405180910390fd5b6110fd600180546001019055565b600061110860015490565b60408051610100810182528281526001600160a01b03808a16602080840191825233848601908152606085018c8152608086018c81524260a0880152600060c0880181905288518086018a5281815260e0890152898152600294859052979097208651815593516001850180549187166001600160a01b0319928316179055915192840180549390951692909116919091179092559051600382015591519293509160048201906111b99082611947565b5060a0820151600582015560c082015160068201805460ff191691151591909117905560e082015160078201906111f09082611947565b5050506001600160a01b03861660009081526003602081815260408084208054600181810183559186528386200186905589855260048352818520869055858552600690925290922080548693919260ff1990911691908490811115611258576112586117a4565b02179055506040518181527f032bc66be43dbccb7487781d168eb7bda224628a3b2c3388bdf69b532a3a16119060200160405180910390a1336001600160a01b0316866001600160a01b0316827f917db94e80e6094230fa703908fcb82f96f457c134cb6688c8e4389a388236a4886040516112d691815260200190565b60405180910390a495945050505050565b6000546001600160a01b03163314610cca5760405162461bcd60e51b815260206004820181905260248201527f4f776e61626c653a2063616c6c6572206973206e6f7420746865206f776e65726044820152606401611064565b600080546001600160a01b038381166001600160a01b0319831681178455604051919092169283917f8be0079c531659141344cd1fd0a4f28419497f9722a3daafe3b4186f6b6457e09190a35050565b50805461139d90611850565b6000825580601f106113ad575050565b601f01602090049060005260206000209081019061107691905b808211156113db57600081556001016113c7565b5090565b80356001600160a01b03811681146113f657600080fd5b919050565b6000806040838503121561140e57600080fd5b611417836113df565b946020939093013593505050565b60008060006060848603121561143a57600080fd5b611443846113df565b9250611451602085016113df565b9150604084013590509250925092565b60006020828403121561147357600080fd5b61147c826113df565b9392505050565b60006020828403121561149557600080fd5b5035919050565b6000815180845260005b818110156114c2576020818501810151868301820152016114a6565b506000602082860101526020601f19601f83011685010191505092915050565b8881526001600160a01b03888116602083015287166040820152606081018690526101006080820181905260009061151c8382018861149c565b90508560a084015284151560c084015282810360e084015261153e818561149c565b9b9a5050505050505050505050565b6020808252825182820181905260009190848201906040850190845b8181101561158557835183529284019291840191600101611569565b50909695505050505050565b634e487b7160e01b600052604160045260246000fd5b600067ffffffffffffffff808411156115c2576115c2611591565b604051601f8501601f19908116603f011681019082821181831017156115ea576115ea611591565b8160405280935085815286868601111561160357600080fd5b858560208301376000602087830101525050509392505050565b6000806000806080858703121561163357600080fd5b61163c856113df565b935061164a602086016113df565b925060408501359150606085013567ffffffffffffffff81111561166d57600080fd5b8501601f8101871361167e57600080fd5b61168d878235602084016115a7565b91505092959194509250565b602081528151602082015260018060a01b036020830151166040820152600060408301516116d260608401826001600160a01b03169052565b506060830151608083015260808301516101008060a08501526116f961012085018361149c565b915060a085015160c085015260c085015161171860e086018215159052565b5060e0850151848303601f190182860152611733838261149c565b9695505050505050565b600082601f83011261174e57600080fd5b61147c838335602085016115a7565b6000806040838503121561177057600080fd5b82359150602083013567ffffffffffffffff81111561178e57600080fd5b61179a8582860161173d565b9150509250929050565b634e487b7160e01b600052602160045260246000fd5b60208101600483106117dc57634e487b7160e01b600052602160045260246000fd5b91905290565b600080600080608085870312156117f857600080fd5b611801856113df565b935060208501359250604085013567ffffffffffffffff81111561182457600080fd5b6118308782880161173d565b92505060608501356004811061184557600080fd5b939692955090935050565b600181811c9082168061186457607f821691505b602082108103610eff57634e487b7160e01b600052602260045260246000fd5b634e487b7160e01b600052603260045260246000fd5b634e487b7160e01b600052601160045260246000fd5b818103818111156118c3576118c361189a565b92915050565b634e487b7160e01b600052603160045260246000fd5b6000600182016118f1576118f161189a565b5060010190565b601f82111561194257600081815260208120601f850160051c8101602086101561191f5750805b601f850160051c820191505b8181101561193e5782815560010161192b565b5050505b505050565b815167ffffffffffffffff81111561196157611961611591565b6119758161196f8454611850565b846118f8565b602080601f8311600181146119aa57600084156119925750858301515b600019600386901b1c1916600185901b17855561193e565b600085815260208120601f198616915b828110156119d9578886015182559484019460019091019084016119ba565b50858210156119f75787850151600019600388901b60f8161c191681555b5050505050600190811b01905550565b60208152600061147c602083018461149c56fea264697066735822122086a5b48c3cbbebae35d3a7334e2c00d18403bbc788e7a8966682bd51cbd67be064736f6c63430008130033",
  "linkReferences": {},
  "deployedLinkReferences": {}
}