{
  "_format": "hh-sol-artifact-1",
  "contractName": "ReputationOracle",
  "sourceName": "app/contracts/dao/ReputationOracle.sol",
  "abi": [
    {
      "anonymous": false,
      "inputs": [
        {
          "indexed": true,
          "internalType": "address",
          "name": "entity",
          "type": "address"
        },
        {
          "indexed": false,
          "internalType": "uint256",
          "name": "newScore",
          "type": "uint256"
        }
      ],
      "name": "ReputationUpdated",
      "type": "event"
    },
    {
      "inputs": [],
      "name": "REPUTATION_TYPEHASH",
      "outputs": [
        {
          "internalType": "bytes32",
          "name": "",
          "type": "bytes32"
        }
      ],
      "stateMutability": "view",
      "type": "function"
    },
    {
      "inputs": [
        {
          "internalType": "address",
          "name": "",
          "type": "address"
        },
        {
          "internalType": "uint256",
          "name": "",
          "type": "uint256"
        }
      ],
      "name": "checkpoints",
      "outputs": [
        {
          "internalType": "uint32",
          "name": "fromBlock",
          "type": "uint32"
        },
        {
          "internalType": "uint256",
          "name": "score",
          "type": "uint256"
        }
      ],
      "stateMutability": "view",
      "type": "function"
    },
    {
      "inputs": [
        {
          "internalType": "address",
          "name": "account",
          "type": "address"
        },
        {
          "internalType": "uint256",
          "name": "blockNumber",
          "type": "uint256"
        }
      ],
      "name": "getPastReputation",
      "outputs": [
        {
          "internalType": "uint256",
          "name": "",
          "type": "uint256"
        }
      ],
      "stateMutability": "view",
      "type": "function"
    },
    {
      "inputs": [
        {
          "internalType": "address",
          "name": "account",
          "type": "address"
        }
      ],
      "name": "getReputation",
      "outputs": [
        {
          "internalType": "uint256",
          "name": "",
          "type": "uint256"
        }
      ],
      "stateMutability": "view",
      "type": "function"
    },
    {
      "inputs": [
        {
          "internalType": "address",
          "name": "entity",
          "type": "address"
        },
        {
          "internalType": "uint256",
          "name": "score",
          "type": "uint256"
        }
      ],
      "name": "setReputation",
      "outputs": [],
      "stateMutability": "nonpayable",
      "type": "function"
    }
  ],
  "bytecode": "0x608060405234801561001057600080fd5b50610626806100206000396000f3fe608060405234801561001057600080fd5b50600436106100575760003560e01c80630cdfebfa1461005c5780639c89a0e2146100905780639e719cf6146100b1578063b120c16a146100c4578063fd0dccd5146100d9575b600080fd5b61006f61006a366004610520565b610100565b6040805163ffffffff90931683526020830191909152015b60405180910390f35b6100a361009e36600461054a565b610143565b604051908152602001610087565b6100a36100bf366004610520565b6101a3565b6100d76100d2366004610520565b61032c565b005b6100a37f814eccc139b763f8a1b8dce22e5982751a415cbc4d3b4f9324e28f24a15c04fd81565b6000602052816000526040600020818154811061011c57600080fd5b60009182526020909120600290910201805460019091015463ffffffff9091169250905082565b6001600160a01b038116600090815260208190526040812080541561019957805481906101729060019061057b565b815481106101825761018261058e565b90600052602060002090600202016001015461019c565b60005b9392505050565b60004382106102075760405162461bcd60e51b815260206004820152602560248201527f52657075746174696f6e4f7261636c653a20626c6f636b206e6f7420796574206044820152641b5a5b995960da1b60648201526084015b60405180910390fd5b6001600160a01b03831660009081526020819052604081208054909103610232576000915050610326565b805460009081906102459060019061057b565b905060005b818310156102a85761025c838361037d565b9050858482815481106102715761027161058e565b600091825260209091206002909102015463ffffffff1611156102965780915061024a565b6102a18160016105a4565b925061024a565b858484815481106102bb576102bb61058e565b600091825260209091206002909102015463ffffffff1611156102fb57826000036102ed576000945050505050610326565b826102f7816105b7565b9350505b83838154811061030d5761030d61058e565b9060005260206000209060020201600101549450505050505b92915050565b6103368282610398565b816001600160a01b03167ffc577563f1b9a0461e24abef1e1fcc0d33d3d881f20b5df6dda59de4aae2c8218260405161037191815260200190565b60405180910390a25050565b600061038c60028484186105ce565b61019c908484166105a4565b60006103a34361049b565b6001600160a01b03841660009081526020819052604090208054919250908015801590610407575063ffffffff8316826103de60018461057b565b815481106103ee576103ee61058e565b600091825260209091206002909102015463ffffffff16145b1561044357838261041960018461057b565b815481106104295761042961058e565b906000526020600020906002020160010181905550610494565b6040805180820190915263ffffffff8481168252602080830187815285546001808201885560008881529390932094516002909102909401805463ffffffff19169490931693909317825591519101555b5050505050565b600063ffffffff8211156105005760405162461bcd60e51b815260206004820152602660248201527f53616665436173743a2076616c756520646f65736e27742066697420696e203360448201526532206269747360d01b60648201526084016101fe565b5090565b80356001600160a01b038116811461051b57600080fd5b919050565b6000806040838503121561053357600080fd5b61053c83610504565b946020939093013593505050565b60006020828403121561055c57600080fd5b61019c82610504565b634e487b7160e01b600052601160045260246000fd5b8181038181111561032657610326610565565b634e487b7160e01b600052603260045260246000fd5b8082018082111561032657610326610565565b6000816105c6576105c6610565565b506000190190565b6000826105eb57634e487b7160e01b600052601260045260246000fd5b50049056fea264697066735822122074289798a90de9b3057fa42fb6b44bf936e9e1bd61d48301735e751fa705ad2564736f6c63430008130033",
  "linkReferences": {},
  "deployedLinkReferences": {}
}