{
  "_format": "hh-sol-artifact-1",
  "contractName": "CredentialVerifier",
  "sourceName": "app/contracts/CredentialVerifier.sol",
  "abi": [
    {
      "inputs": [
        {
          "internalType": "address",
          "name": "_registry",
          "type": "address"
        }
      ],
      "stateMutability": "nonpayable",
      "type": "constructor"
    },
    {
      "anonymous": false,
      "inputs": [
        {
          "indexed": true,
          "internalType": "string",
          "name": "credentialId",
          "type": "string"
        },
        {
          "indexed": true,
          "internalType": "string",
          "name": "ruleId",
          "type": "string"
        },
        {
          "indexed": false,
          "internalType": "bool",
          "name": "valid",
          "type": "bool"
        },
        {
          "indexed": false,
          "internalType": "string",
          "name": "reason",
          "type": "string"
        }
      ],
      "name": "CredentialVerified",
      "type": "event"
    },
    {
      "anonymous": false,
      "inputs": [
        {
          "indexed": true,
          "internalType": "string",
          "name": "ruleId",
          "type": "string"
        },
        {
          "indexed": false,
          "internalType": "address",
          "name": "creator",
          "type": "address"
        }
      ],
      "name": "RuleCreated",
      "type": "event"
    },
    {
      "anonymous": false,
      "inputs": [
        {
          "indexed": true,
          "internalType": "string",
          "name": "ruleId",
          "type": "string"
        },
        {
          "indexed": false,
          "internalType": "address",
          "name": "updater",
          "type": "address"
        }
      ],
      "name": "RuleUpdated",
      "type": "event"
    },
    {
      "inputs": [
        {
          "internalType": "string[]",
          "name": "credentialIds",
          "type": "string[]"
        },
        {
          "internalType": "string",
          "name": "ruleId",
          "type": "string"
        }
      ],
      "name": "batchVerify",
      "outputs": [
        {
          "internalType": "bool[]",
          "name": "results",
          "type": "bool[]"
        }
      ],
      "stateMutability": "nonpayable",
      "type": "function"
    },
    {
      "inputs": [
        {
          "internalType": "string",
          "name": "ruleId",
          "type": "string"
        },
        {
          "internalType": "bool",
          "name": "checkExpiry",
          "type": "bool"
        },
        {
          "internalType": "uint256",
          "name": "maxAge",
          "type": "uint256"
        },
        {
          "internalType": "bool",
          "name": "checkIssuer",
          "type": "bool"
        },
        {
          "internalType": "address[]",
          "name": "allowedIssuers",
          "type": "address[]"
        },
        {
          "internalType": "bool",
          "name": "checkTenant",
          "type": "bool"
        },
        {
          "internalType": "string[]",
          "name": "allowedTenants",
          "type": "string[]"
        }
      ],
      "name": "createRule",
      "outputs": [],
      "stateMutability": "nonpayable",
      "type": "function"
    },
    {
      "inputs": [
        {
          "internalType": "string",
          "name": "credentialId",
          "type": "string"
        }
      ],
      "name": "getLastVerification",
      "outputs": [
        {
          "internalType": "bool",
          "name": "valid",
          "type": "bool"
        },
        {
          "internalType": "string",
          "name": "reason",
          "type": "string"
        },
        {
          "internalType": "uint256",
          "name": "timestamp",
          "type": "uint256"
        }
      ],
      "stateMutability": "view",
      "type": "function"
    },
    {
      "inputs": [
        {
          "internalType": "string",
          "name": "credentialId",
          "type": "string"
        }
      ],
      "name": "getVerificationHistory",
      "outputs": [
        {
          "components": [
            {
              "internalType": "bool",
              "name": "valid",
              "type": "bool"
            },
            {
              "internalType": "string",
              "name": "reason",
              "type": "string"
            },
            {
              "internalType": "uint256",
              "name": "timestamp",
              "type": "uint256"
            },
            {
              "internalType": "address",
              "name": "verifier",
              "type": "address"
            }
          ],
          "internalType": "struct CredentialVerifier.VerificationResult[]",
          "name": "",
          "type": "tuple[]"
        }
      ],
      "stateMutability": "view",
      "type": "function"
    },
    {
      "inputs": [],
      "name": "owner",
      "outputs": [
        {
          "internalType": "address",
          "name": "",
          "type": "address"
        }
      ],
      "stateMutability": "view",
      "type": "function"
    },
    {
      "inputs": [],
      "name": "registry",
      "outputs": [
        {
          "internalType": "contract CredentialRegistry",
          "name": "",
          "type": "address"
        }
      ],
      "stateMutability": "view",
      "type": "function"
    },
    {
      "inputs": [
        {
          "internalType": "string",
          "name": "",
          "type": "string"
        }
      ],
      "name": "rules",
      "outputs": [
        {
          "internalType": "bool",
          "name": "checkExpiry",
          "type": "bool"
        },
        {
          "internalType": "uint256",
          "name": "maxAge",
          "type": "uint256"
        },
        {
          "internalType": "bool",
          "name": "checkIssuer",
          "type": "bool"
        },
        {
          "internalType": "bool",
          "name": "checkTenant",
          "type": "bool"
        },
        {
          "internalType": "bool",
          "name": "active",
          "type": "bool"
        }
      ],
      "stateMutability": "view",
      "type": "function"
    },
    {
      "inputs": [
        {
          "internalType": "address",
          "name": "verifier",
          "type": "address"
        },
        {
          "internalType": "bool",
          "name": "status",
          "type": "bool"
        }
      ],
      "name": "setVerifier",
      "outputs": [],
      "stateMutability": "nonpayable",
      "type": "function"
    },
    {
      "inputs": [
        {
          "internalType": "string",
          "name": "ruleId",
          "type": "string"
        },
        {
          "internalType": "bool",
          "name": "active",
          "type": "bool"
        }
      ],
      "name": "updateRule",
      "outputs": [],
      "stateMutability": "nonpayable",
      "type": "function"
    },
    {
      "inputs": [
        {
          "internalType": "string",
          "name": "",
          "type": "string"
        },
        {
          "internalType": "uint256",
          "name": "",
          "type": "uint256"
        }
      ],
      "name": "verificationHistory",
      "outputs": [
        {
          "internalType": "bool",
          "name": "valid",
          "type": "bool"
        },
        {
          "internalType": "string",
          "name": "reason",
          "type": "string"
        },
        {
          "internalType": "uint256",
          "name": "timestamp",
          "type": "uint256"
        },
        {
          "internalType": "address",
          "name": "verifier",
          "type": "address"
        }
      ],
      "stateMutability": "view",
      "type": "function"
    },
    {
      "inputs": [
        {
          "internalType": "address",
          "name": "",
          "type": "address"
        }
      ],
      "name": "verifiers",
      "outputs": [
        {
          "internalType": "bool",
          "name": "",
          "type": "bool"
        }
      ],
      "stateMutability": "view",
      "type": "function"
    },
    {
      "inputs": [
        {
          "internalType": "string",
          "name": "credentialId",
          "type": "string"
        },
        {
          "internalType": "string",
          "name": "ruleId",
          "type": "string"
        }
      ],
      "name": "verifyCredential",
      "outputs": [
        {
          "internalType": "bool",
          "name": "valid",
          "type": "bool"
        },
        {
          "internalType": "string",
          "name": "reason",
          "type": "string"
        }
      ],
      "stateMutability": "nonpayable",
      "type": "function"
    }
  ],
  "bytecode": "0x608060405234801561001057600080fd5b50604051611c36380380611c3683398101604081905261002f91610077565b600080546001600160a01b039092166001600160a01b03199283161781556004805490921633908117909255908152600360205260409020805460ff191660011790556100a7565b60006020828403121561008957600080fd5b81516001600160a01b03811681146100a057600080fd5b9392505050565b611b80806100b66000396000f3fe608060405234801561001057600080fd5b50600436106100b45760003560e01c8063ac9b567111610071578063ac9b56711461018b578063cff3c8f21461019e578063d28f7a10146101c1578063d96d97a5146101e1578063eb97208f14610201578063fa851e961461021457600080fd5b80631230abb5146100b957806319de13c9146100e35780636c824487146100f85780637022dc5d1461012b5780637b1039991461014d5780638da5cb5b14610178575b600080fd5b6100cc6100c736600461130d565b61029b565b6040516100da9291906113c0565b60405180910390f35b6100f66100f1366004611401565b610810565b005b61011b610106366004611467565b60036020526000908152604090205460ff1681565b60405190151581526020016100da565b61013e61013936600461148b565b6108d2565b6040516100da939291906114bf565b600054610160906001600160a01b031681565b6040516001600160a01b0390911681526020016100da565b600454610160906001600160a01b031681565b6100f66101993660046114ea565b610aab565b6101b16101ac366004611518565b610b3b565b6040516100da949392919061155c565b6101d46101cf366004611645565b610c2a565b6040516100da919061167b565b6101f46101ef36600461148b565b610d28565b6040516100da91906116c1565b6100f661020f3660046117bb565b610e6c565b61026961022236600461148b565b8051602081830181018051600180835293830192909401919091209290528154908201546002830154600484015460069094015460ff938416949293918216928216911685565b60408051951515865260208601949094529115159284019290925290151560608301521515608082015260a0016100da565b3360009081526003602052604081205460609060ff16806102c657506004546001600160a01b031633145b6102eb5760405162461bcd60e51b81526004016102e290611886565b60405180910390fd5b60006001846040516102fd91906118ae565b90815260408051918290036020908101832060e084018352805460ff908116151585526001820154858401526002820154161515848401526003810180548451818502810185019095528085529193606086019390929083018282801561038d57602002820191906000526020600020905b81546001600160a01b0316815260019091019060200180831161036f575b5050509183525050600482015460ff161515602080830191909152600583018054604080518285028101850182528281529401939260009084015b828210156104745783829060005260206000200180546103e7906118ca565b80601f0160208091040260200160405190810160405280929190818152602001828054610413906118ca565b80156104605780601f1061043557610100808354040283529160200191610460565b820191906000526020600020905b81548152906001019060200180831161044357829003601f168201915b5050505050815260200190600101906103c8565b505050908252506006919091015460ff16151560209091015260c08101519091506104d35760405162461bcd60e51b815260206004820152600f60248201526e52756c65206e6f742061637469766560881b60448201526064016102e2565b6000805460405163d091187f60e01b81528291829182916001600160a01b03169063d091187f90610508908c90600401611904565b600060405180830381865afa158015610525573d6000803e3d6000fd5b505050506040513d6000823e601f3d908101601f1916820160405261054d9190810190611922565b50935093509350935083516000036105a5576105978960006040518060400160405280601481526020017310dc9959195b9d1a585b081b9bdd08199bdd5b9960621b815250610ff9565b965096505050505050610809565b80156105e1576105978960006040518060400160405280601281526020017110dc9959195b9d1a585b081c995d9bdad95960721b815250610ff9565b8451156106345760208501516105f790846119e7565b421115610634576105978960006040518060400160405280601281526020017110dc9959195b9d1a585b08195e1c1a5c995960721b815250610ff9565b8460400151156106ed576000805b8660600151518110156106a057836001600160a01b03168760600151828151811061066f5761066f6119fa565b60200260200101516001600160a01b03160361068e57600191506106a0565b8061069881611a10565b915050610642565b50806106eb576106dc8a600060405180604001604052806012815260200171125cdcdd595c881b9bdd08185b1b1bddd95960721b815250610ff9565b97509750505050505050610809565b505b8460800151156107c8576040805160208082018352600091829052825180820184528281528351918201909352819052805b8760a00151518110156107795782805190602001208860a00151828151811061074a5761074a6119fa565b602002602001015180519060200120036107675760019150610779565b8061077181611a10565b91505061071f565b50806107c5576107b58b60006040518060400160405280601281526020017115195b985b9d081b9bdd08185b1b1bddd95960721b815250610ff9565b9850985050505050505050610809565b50505b6107ff8960016040518060400160405280601381526020017215995c9a599a58d85d1a5bdb881c185cdcd959606a1b815250610ff9565b9650965050505050505b9250929050565b3360009081526003602052604090205460ff168061083857506004546001600160a01b031633145b6108545760405162461bcd60e51b81526004016102e290611886565b8060018360405161086591906118ae565b908152604051908190036020018120600601805492151560ff19909316929092179091556108949083906118ae565b604051908190038120338252907f1b089597b3b40600b5c2c081b485e101ac44ca70ebae63ff99877e9f8f35b90c9060200160405180910390a25050565b600060606000806002856040516108e991906118ae565b9081526020016040518091039020805480602002602001604051908101604052809291908181526020016000905b82821015610a10576000848152602090819020604080516080810190915260048502909101805460ff1615158252600181018054929391929184019161095c906118ca565b80601f0160208091040260200160405190810160405280929190818152602001828054610988906118ca565b80156109d55780601f106109aa576101008083540402835291602001916109d5565b820191906000526020600020905b8154815290600101906020018083116109b857829003601f168201915b505050918352505060028201546020808301919091526003909201546001600160a01b03166040909101529082526001929092019101610917565b5050505090508051600003610a6157505060408051808201909152601781527f4e6f20766572696669636174696f6e20686973746f7279000000000000000000602082015260009250905081610aa4565b60008160018351610a729190611a29565b81518110610a8257610a826119fa565b6020026020010151905080600001518160200151826040015194509450945050505b9193909250565b6004546001600160a01b03163314610b105760405162461bcd60e51b815260206004820152602260248201527f4f6e6c79206f776e65722063616e20706572666f726d2074686973206163746960448201526137b760f11b60648201526084016102e2565b6001600160a01b03919091166000908152600360205260409020805460ff1916911515919091179055565b81516020818401810180516002825292820191850191909120919052805482908110610b6657600080fd5b60009182526020909120600490910201805460018201805460ff9092169450919250610b91906118ca565b80601f0160208091040260200160405190810160405280929190818152602001828054610bbd906118ca565b8015610c0a5780601f10610bdf57610100808354040283529160200191610c0a565b820191906000526020600020905b815481529060010190602001808311610bed57829003601f168201915b5050505060028301546003909301549192916001600160a01b0316905084565b3360009081526003602052604090205460609060ff1680610c5557506004546001600160a01b031633145b610c715760405162461bcd60e51b81526004016102e290611886565b82516001600160401b03811115610c8a57610c8a61124a565b604051908082528060200260200182016040528015610cb3578160200160208202803683370190505b50905060005b8351811015610d20576000610ce7858381518110610cd957610cd96119fa565b60200260200101518561029b565b50905080838381518110610cfd57610cfd6119fa565b911515602092830291909101909101525080610d1881611a10565b915050610cb9565b505b92915050565b6060600282604051610d3a91906118ae565b9081526020016040518091039020805480602002602001604051908101604052809291908181526020016000905b82821015610e61576000848152602090819020604080516080810190915260048502909101805460ff16151582526001810180549293919291840191610dad906118ca565b80601f0160208091040260200160405190810160405280929190818152602001828054610dd9906118ca565b8015610e265780601f10610dfb57610100808354040283529160200191610e26565b820191906000526020600020905b815481529060010190602001808311610e0957829003601f168201915b505050918352505060028201546020808301919091526003909201546001600160a01b03166040909101529082526001929092019101610d68565b505050509050919050565b3360009081526003602052604090205460ff1680610e9457506004546001600160a01b031633145b610eb05760405162461bcd60e51b81526004016102e290611886565b6040518060e0016040528087151581526020018681526020018515158152602001848152602001831515815260200182815260200160011515815250600188604051610efc91906118ae565b908152604080519182900360209081019092208351815490151560ff19918216178255848401516001830155918401516002820180549115159190931617909155606083015180519192610f5892600385019290910190611124565b50608082015160048201805460ff191691151591909117905560a08201518051610f8c916005840191602090910190611189565b5060c091909101516006909101805460ff1916911515919091179055604051610fb69088906118ae565b604051908190038120338252907ff9b44ecae4171245d1eddecabdc36028827f12bc1fae053f2b931e92c87743629060200160405180910390a250505050505050565b6000606060028560405161100d91906118ae565b9081526040805160209281900383018120608082018352871515825283820187815242938301939093523360608301528054600180820183556000928352949091208251600490920201805460ff1916911515919091178155915190928201906110779082611a8b565b506040828101516002830155606090920151600390910180546001600160a01b0319166001600160a01b03909216919091179055517fc5d2460186f7233c927e7db2dcc703c0e500b653ca82273b7bfad8045d85a470906110d99087906118ae565b60405180910390207ff89710fd9702bb65a955258575b494816d8dc6b6608dbedfdde07892f5470cb586866040516111129291906113c0565b60405180910390a35091939092509050565b828054828255906000526020600020908101928215611179579160200282015b8281111561117957825182546001600160a01b0319166001600160a01b03909116178255602090920191600190910190611144565b506111859291506111db565b5090565b8280548282559060005260206000209081019282156111cf579160200282015b828111156111cf57825182906111bf9082611a8b565b50916020019190600101906111a9565b506111859291506111f0565b5b8082111561118557600081556001016111dc565b80821115611185576000611204828261120d565b506001016111f0565b508054611219906118ca565b6000825580601f10611229575050565b601f01602090049060005260206000209081019061124791906111db565b50565b634e487b7160e01b600052604160045260246000fd5b604051601f8201601f191681016001600160401b03811182821017156112885761128861124a565b604052919050565b60006001600160401b038211156112a9576112a961124a565b50601f01601f191660200190565b600082601f8301126112c857600080fd5b81356112db6112d682611290565b611260565b8181528460208386010111156112f057600080fd5b816020850160208301376000918101602001919091529392505050565b6000806040838503121561132057600080fd5b82356001600160401b038082111561133757600080fd5b611343868387016112b7565b9350602085013591508082111561135957600080fd5b50611366858286016112b7565b9150509250929050565b60005b8381101561138b578181015183820152602001611373565b50506000910152565b600081518084526113ac816020860160208601611370565b601f01601f19169290920160200192915050565b82151581526040602082015260006113db6040830184611394565b949350505050565b801515811461124757600080fd5b80356113fc816113e3565b919050565b6000806040838503121561141457600080fd5b82356001600160401b0381111561142a57600080fd5b611436858286016112b7565b9250506020830135611447816113e3565b809150509250929050565b6001600160a01b038116811461124757600080fd5b60006020828403121561147957600080fd5b813561148481611452565b9392505050565b60006020828403121561149d57600080fd5b81356001600160401b038111156114b357600080fd5b6113db848285016112b7565b83151581526060602082015260006114da6060830185611394565b9050826040830152949350505050565b600080604083850312156114fd57600080fd5b823561150881611452565b91506020830135611447816113e3565b6000806040838503121561152b57600080fd5b82356001600160401b0381111561154157600080fd5b61154d858286016112b7565b95602094909401359450505050565b84151581526080602082015260006115776080830186611394565b6040830194909452506001600160a01b039190911660609091015292915050565b60006001600160401b038211156115b1576115b161124a565b5060051b60200190565b600082601f8301126115cc57600080fd5b813560206115dc6112d683611598565b82815260059290921b840181019181810190868411156115fb57600080fd5b8286015b8481101561163a5780356001600160401b0381111561161e5760008081fd5b61162c8986838b01016112b7565b8452509183019183016115ff565b509695505050505050565b6000806040838503121561165857600080fd5b82356001600160401b038082111561166f57600080fd5b611343868387016115bb565b6020808252825182820181905260009190848201906040850190845b818110156116b5578351151583529284019291840191600101611697565b50909695505050505050565b60006020808301818452808551808352604092508286019150828160051b87010184880160005b8381101561174957603f198984030185528151608081511515855288820151818a87015261171882870182611394565b838a0151878b01526060938401516001600160a01b03169390960192909252505093860193908601906001016116e8565b509098975050505050505050565b600082601f83011261176857600080fd5b813560206117786112d683611598565b82815260059290921b8401810191818101908684111561179757600080fd5b8286015b8481101561163a5780356117ae81611452565b835291830191830161179b565b600080600080600080600060e0888a0312156117d657600080fd5b87356001600160401b03808211156117ed57600080fd5b6117f98b838c016112b7565b985060208a0135915061180b826113e3565b90965060408901359550606089013590611824826113e3565b9094506080890135908082111561183a57600080fd5b6118468b838c01611757565b945061185460a08b016113f1565b935060c08a013591508082111561186a57600080fd5b506118778a828b016115bb565b91505092959891949750929550565b6020808252600e908201526d139bdd08185d5d1a1bdc9a5e995960921b604082015260600190565b600082516118c0818460208701611370565b9190910192915050565b600181811c908216806118de57607f821691505b6020821081036118fe57634e487b7160e01b600052602260045260246000fd5b50919050565b6020815260006114846020830184611394565b80516113fc816113e3565b600080600080600060a0868803121561193a57600080fd5b85516001600160401b0381111561195057600080fd5b8601601f8101881361196157600080fd5b805161196f6112d682611290565b81815289602083850101111561198457600080fd5b611995826020830160208601611370565b8097505050506020860151935060408601516119b081611452565b92506119be60608701611917565b9150608086015190509295509295909350565b634e487b7160e01b600052601160045260246000fd5b80820180821115610d2257610d226119d1565b634e487b7160e01b600052603260045260246000fd5b600060018201611a2257611a226119d1565b5060010190565b81810381811115610d2257610d226119d1565b601f821115611a8657600081815260208120601f850160051c81016020861015611a635750805b601f850160051c820191505b81811015611a8257828155600101611a6f565b5050505b505050565b81516001600160401b03811115611aa457611aa461124a565b611ab881611ab284546118ca565b84611a3c565b602080601f831160018114611aed5760008415611ad55750858301515b600019600386901b1c1916600185901b178555611a82565b600085815260208120601f198616915b82811015611b1c57888601518255948401946001909101908401611afd565b5085821015611b3a5787850151600019600388901b60f8161c191681555b5050505050600190811b0190555056fea26469706673582212200592cbc240ee845b7917122869f39486ee86d1eff9b692cc1c03013fcb7606f464736f6c63430008130033",
  "linkReferences": {},
  "deployedLinkReferences": {}
}