{
  "_format": "hh-sol-artifact-1",
  "contractName": "CrossChainCredentialBridge",
  "sourceName": "app/contracts/CrossChainBridge.sol",
  "abi": [
    {
      "inputs": [],
      "stateMutability": "nonpayable",
      "type": "constructor"
    },
    {
      "anonymous": false,
      "inputs": [
        {
          "indexed": false,
          "internalType": "string",
          "name": "chain",
          "type": "string"
        },
        {
          "indexed": false,
          "internalType": "address",
          "name": "operator",
          "type": "address"
        }
      ],
      "name": "BridgeOperatorUpdated",
      "type": "event"
    },
    {
      "anonymous": false,
      "inputs": [
        {
          "indexed": true,
          "internalType": "address",
          "name": "previousOwner",
          "type": "address"
        },
        {
          "indexed": true,
          "internalType": "address",
          "name": "newOwner",
          "type": "address"
        }
      ],
      "name": "OwnershipTransferred",
      "type": "event"
    },
    {
      "anonymous": false,
      "inputs": [
        {
          "indexed": true,
          "internalType": "bytes32",
          "name": "transferId",
          "type": "bytes32"
        },
        {
          "indexed": false,
          "internalType": "bytes",
          "name": "secret",
          "type": "bytes"
        }
      ],
      "name": "TransferCompleted",
      "type": "event"
    },
    {
      "anonymous": false,
      "inputs": [
        {
          "indexed": true,
          "internalType": "bytes32",
          "name": "transferId",
          "type": "bytes32"
        },
        {
          "indexed": true,
          "internalType": "bytes32",
          "name": "credentialHash",
          "type": "bytes32"
        },
        {
          "indexed": false,
          "internalType": "string",
          "name": "sourceChain",
          "type": "string"
        },
        {
          "indexed": false,
          "internalType": "string",
          "name": "targetChain",
          "type": "string"
        },
        {
          "indexed": false,
          "internalType": "address",
          "name": "initiator",
          "type": "address"
        }
      ],
      "name": "TransferInitiated",
      "type": "event"
    },
    {
      "anonymous": false,
      "inputs": [
        {
          "indexed": true,
          "internalType": "bytes32",
          "name": "transferId",
          "type": "bytes32"
        },
        {
          "indexed": false,
          "internalType": "bytes32",
          "name": "secretHash",
          "type": "bytes32"
        },
        {
          "indexed": false,
          "internalType": "uint256",
          "name": "unlockTime",
          "type": "uint256"
        }
      ],
      "name": "TransferLocked",
      "type": "event"
    },
    {
      "anonymous": false,
      "inputs": [
        {
          "indexed": true,
          "internalType": "bytes32",
          "name": "transferId",
          "type": "bytes32"
        }
      ],
      "name": "TransferRefunded",
      "type": "event"
    },
    {
      "inputs": [
        {
          "internalType": "string",
          "name": "",
          "type": "string"
        }
      ],
      "name": "bridgeOperators",
      "outputs": [
        {
          "internalType": "address",
          "name": "",
          "type": "address"
        }
      ],
      "stateMutability": "view",
      "type": "function"
    },
    {
      "inputs": [
        {
          "internalType": "bytes32",
          "name": "transferId",
          "type": "bytes32"
        },
        {
          "internalType": "bytes",
          "name": "secret",
          "type": "bytes"
        }
      ],
      "name": "completeTransfer",
      "outputs": [],
      "stateMutability": "nonpayable",
      "type": "function"
    },
    {
      "inputs": [
        {
          "internalType": "bytes32",
          "name": "transferId",
          "type": "bytes32"
        }
      ],
      "name": "getTransfer",
      "outputs": [
        {
          "internalType": "bytes32",
          "name": "credentialHash",
          "type": "bytes32"
        },
        {
          "internalType": "address",
          "name": "initiator",
          "type": "address"
        },
        {
          "internalType": "string",
          "name": "sourceChain",
          "type": "string"
        },
        {
          "internalType": "string",
          "name": "targetChain",
          "type": "string"
        },
        {
          "internalType": "uint256",
          "name": "lockTime",
          "type": "uint256"
        },
        {
          "internalType": "uint256",
          "name": "unlockTime",
          "type": "uint256"
        },
        {
          "internalType": "enum CrossChainCredentialBridge.TransferStatus",
          "name": "status",
          "type": "uint8"
        }
      ],
      "stateMutability": "view",
      "type": "function"
    },
    {
      "inputs": [
        {
          "internalType": "bytes32",
          "name": "credentialHash",
          "type": "bytes32"
        },
        {
          "internalType": "string",
          "name": "targetChain",
          "type": "string"
        },
        {
          "internalType": "bytes32",
          "name": "secretHash",
          "type": "bytes32"
        }
      ],
      "name": "initiateTransfer",
      "outputs": [
        {
          "internalType": "bytes32",
          "name": "transferId",
          "type": "bytes32"
        }
      ],
      "stateMutability": "nonpayable",
      "type": "function"
    },
    {
      "inputs": [],
      "name": "lockDuration",
      "outputs": [
        {
          "internalType": "uint256",
          "name": "",
          "type": "uint256"
        }
      ],
      "stateMutability": "view",
      "type": "function"
    },
    {
      "inputs": [
        {
          "internalType": "bytes32",
          "name": "credentialHash",
          "type": "bytes32"
        },
        {
          "internalType": "string",
          "name": "sourceChain",
          "type": "string"
        },
        {
          "internalType": "bytes",
          "name": "proof",
          "type": "bytes"
        },
        {
          "internalType": "bytes",
          "name": "signature",
          "type": "bytes"
        }
      ],
      "name": "mintWithProof",
      "outputs": [],
      "stateMutability": "nonpayable",
      "type": "function"
    },
    {
      "inputs": [],
      "name": "owner",
      "outputs": [
        {
          "internalType": "address",
          "name": "",
          "type": "address"
        }
      ],
      "stateMutability": "view",
      "type": "function"
    },
    {
      "inputs": [
        {
          "internalType": "bytes32",
          "name": "transferId",
          "type": "bytes32"
        }
      ],
      "name": "refundTransfer",
      "outputs": [],
      "stateMutability": "nonpayable",
      "type": "function"
    },
    {
      "inputs": [],
      "name": "renounceOwnership",
      "outputs": [],
      "stateMutability": "nonpayable",
      "type": "function"
    },
    {
      "inputs": [
        {
          "internalType": "string",
          "name": "chain",
          "type": "string"
        },
        {
          "internalType": "address",
          "name": "operator",
          "type": "address"
        }
      ],
      "name": "setBridgeOperator",
      "outputs": [],
      "stateMutability": "nonpayable",
      "type": "function"
    },
    {
      "inputs": [
        {
          "internalType": "uint256",
          "name": "_duration",
          "type": "uint256"
        }
      ],
      "name": "setLockDuration",
      "outputs": [],
      "stateMutability": "nonpayable",
      "type": "function"
    },
    {
      "inputs": [
        {
          "internalType": "address",
          "name": "newOwner",
          "type": "address"
        }
      ],
      "name": "transferOwnership",
      "outputs": [],
      "stateMutability": "nonpayable",
      "type": "function"
    },
    {
      "inputs": [
        {
          "internalType": "bytes32",
          "name": "",
          "type": "bytes32"
        }
      ],
      "name": "transfers",
      "outputs": [
        {
          "internalType": "bytes32",
          "name": "credentialHash",
          "type": "bytes32"
        },
        {
          "internalType": "address",
          "name": "initiator",
          "type": "address"
        },
        {
          "internalType": "string",
          "name": "sourceChain",
          "type": "string"
        },
        {
          "internalType": "string",
          "name": "targetChain",
          "type": "string"
        },
        {
          "internalType": "uint256",
          "name": "lockTime",
          "type": "uint256"
        },
        {
          "internalType": "uint256",
          "name": "unlockTime",
          "type": "uint256"
        },
        {
          "internalType": "enum CrossChainCredentialBridge.TransferStatus",
          "name": "status",
          "type": "uint8"
        },
        {
          "internalType": "bytes32",
          "name": "secretHash",
          "type": "bytes32"
        },
        {
          "internalType": "bytes",
          "name": "secret",
          "type": "bytes"
        }
      ],
      "stateMutability": "view",
      "type": "function"
    },
    {
      "inputs": [
        {
          "internalType": "bytes32",
          "name": "",
          "type": "bytes32"
        }
      ],
      "name": "usedProofs",
      "outputs": [
        {
          "internalType": "bool",
          "name": "",
          "type": "bool"
        }
      ],
      "stateMutability": "view",
      "type": "function"
    }
  ],
  "bytecode": "0x60806040526201518060055534801561001757600080fd5b506100213361002a565b6001805561007a565b600080546001600160a01b038381166001600160a01b0319831681178455604051919092169283917f8be0079c531659141344cd1fd0a4f28419497f9722a3daafe3b4186f6b6457e09190a35050565b611c6a806100896000396000f3fe608060405234801561001057600080fd5b50600436106100ea5760003560e01c8063831ed4671161008c578063c30a0f2511610066578063c30a0f251461020c578063c85117661461023f578063c91732dd14610252578063f2fde38b1461026557600080fd5b8063831ed4671461019c5780638da5cb5b146101e8578063ad991c15146101f957600080fd5b8063469fbb4b116100c8578063469fbb4b146101595780634eb665af1461016c578063715018a6146101815780637be8a7111461018957600080fd5b806304554443146100ef578063260958a51461010b5780633c64f04b14610131575b600080fd5b6100f860055481565b6040519081526020015b60405180910390f35b61011e61011936600461155d565b610278565b60405161010297969594939291906115fe565b61014461013f36600461155d565b610505565b60405161010299989796959493929190611662565b6100f8610167366004611788565b6106f8565b61017f61017a36600461155d565b610a24565b005b61017f610a85565b61017f6101973660046117f4565b610a99565b6101d06101aa366004611842565b80516020818301810180516004825292820191909301209152546001600160a01b031681565b6040516001600160a01b039091168152602001610102565b6000546001600160a01b03166101d0565b61017f61020736600461155d565b610b1d565b61022f61021a36600461155d565b60036020526000908152604090205460ff1681565b6040519015158152602001610102565b61017f61024d36600461187f565b610c7f565b61017f6102603660046118c6565b610de9565b61017f610273366004611958565b611041565b60008181526002602081815260408084208151610120810183528154815260018201546001600160a01b0316938101939093529283018054859460609485948794859485948594939092908401916102cf90611973565b80601f01602080910402602001604051908101604052809291908181526020018280546102fb90611973565b80156103485780601f1061031d57610100808354040283529160200191610348565b820191906000526020600020905b81548152906001019060200180831161032b57829003601f168201915b5050505050815260200160038201805461036190611973565b80601f016020809104026020016040519081016040528092919081815260200182805461038d90611973565b80156103da5780601f106103af576101008083540402835291602001916103da565b820191906000526020600020905b8154815290600101906020018083116103bd57829003601f168201915b5050509183525050600482810154602083015260058301546040830152600683015460609092019160ff1690811115610415576104156115c6565b6004811115610426576104266115c6565b81526020016007820154815260200160088201805461044490611973565b80601f016020809104026020016040519081016040528092919081815260200182805461047090611973565b80156104bd5780601f10610492576101008083540402835291602001916104bd565b820191906000526020600020905b8154815290600101906020018083116104a057829003601f168201915b5050505050815250509050806000015181602001518260400151836060015184608001518560a001518660c00151975097509750975097509750975050919395979092949650565b600260208190526000918252604090912080546001820154928201805491936001600160a01b0316929161053890611973565b80601f016020809104026020016040519081016040528092919081815260200182805461056490611973565b80156105b15780601f10610586576101008083540402835291602001916105b1565b820191906000526020600020905b81548152906001019060200180831161059457829003601f168201915b5050505050908060030180546105c690611973565b80601f01602080910402602001604051908101604052809291908181526020018280546105f290611973565b801561063f5780601f106106145761010080835404028352916020019161063f565b820191906000526020600020905b81548152906001019060200180831161062257829003601f168201915b50505060048401546005850154600686015460078701546008880180549798949793965060ff9092169450929161067590611973565b80601f01602080910402602001604051908101604052809291908181526020018280546106a190611973565b80156106ee5780601f106106c3576101008083540402835291602001916106ee565b820191906000526020600020905b8154815290600101906020018083116106d157829003601f168201915b5050505050905089565b60006107026110b7565b600083511161074f5760405162461bcd60e51b815260206004820152601460248201527324b73b30b634b2103a30b933b2ba1031b430b4b760611b60448201526064015b60405180910390fd5b60006001600160a01b031660048460405161076a91906119ad565b908152604051908190036020019020546001600160a01b0316036107d05760405162461bcd60e51b815260206004820152601c60248201527f4e6f206f70657261746f7220666f722074617267657420636861696e000000006044820152606401610746565b83334685426040516020016107e99594939291906119c9565b60408051601f19818403018152918152815160209283012060008181526002909352912060040154909150156108615760405162461bcd60e51b815260206004820152601760248201527f5472616e7366657220616c7265616479206578697374730000000000000000006044820152606401610746565b604080516101208101825285815233602082015290810161088146611110565b8152602001848152602001428152602001600554426108a09190611a16565b815260200160018152602080820185905260408051808301825260008082529382015284835260028083529281902084518155918401516001830180546001600160a01b0319166001600160a01b03909216919091179055830151909182019061090a9082611a86565b506060820151600382019061091f9082611a86565b506080820151816004015560a0820151816005015560c08201518160060160006101000a81548160ff0219169083600481111561095e5761095e6115c6565b021790555060e0820151600782015561010082015160088201906109829082611a86565b5090505083817f723704e684ffd95c504b6cf65e307b00b3827083d8353fcdc4df234d022f26276109b246611110565b86336040516109c393929190611b46565b60405180910390a3807ff23b59cabdd3d303e7f1fb32e0402ac038723cf1c8f7f32a90dc33630d8599e683600554426109fc9190611a16565b6040805192835260208301919091520160405180910390a2610a1d60018055565b9392505050565b610a2c61123a565b610e108110158015610a41575062093a808111155b610a805760405162461bcd60e51b815260206004820152601060248201526f24b73b30b634b210323ab930ba34b7b760811b6044820152606401610746565b600555565b610a8d61123a565b610a976000611294565b565b610aa161123a565b80600483604051610ab291906119ad565b90815260405190819003602001812080546001600160a01b03939093166001600160a01b0319909316929092179091557fc3d03e3d9acb4e48b705d3347faeda068165b4725a14b24ba88efa71cde9e69c90610b119084908490611b84565b60405180910390a15050565b610b256110b7565b60008181526002602052604090206001600682015460ff166004811115610b4e57610b4e6115c6565b14610b915760405162461bcd60e51b8152602060048201526013602482015272151c985b9cd9995c881b9bdd081b1bd8dad959606a1b6044820152606401610746565b8060050154421015610bdc5760405162461bcd60e51b8152602060048201526014602482015273151c985b9cd9995c881b9bdd08195e1c1a5c995960621b6044820152606401610746565b60018101546001600160a01b03163314610c385760405162461bcd60e51b815260206004820152601960248201527f4f6e6c7920696e69746961746f722063616e20726566756e64000000000000006044820152606401610746565b60068101805460ff1916600417905560405182907f82239098982a89db70c5c60fcaa6f0d47aeb1d1e248893d0a4a3fe52f11fead190600090a250610c7c60018055565b50565b610c876110b7565b60008281526002602052604090206001600682015460ff166004811115610cb057610cb06115c6565b14610cf35760405162461bcd60e51b8152602060048201526013602482015272151c985b9cd9995c881b9bdd081b1bd8dad959606a1b6044820152606401610746565b80600501544210610d395760405162461bcd60e51b815260206004820152601060248201526f151c985b9cd9995c88195e1c1a5c995960821b6044820152606401610746565b8151602083012060078201548114610d845760405162461bcd60e51b815260206004820152600e60248201526d125b9d985b1a59081cd958dc995d60921b6044820152606401610746565b60068201805460ff1916600217905560088201610da18482611a86565b50837f82aa4e9c2eea366c623852225fc20df1aa5204b5c88f5166f36574de85e5aa6784604051610dd29190611bae565b60405180910390a25050610de560018055565b5050565b610df16110b7565b60006001600160a01b0316600484604051610e0c91906119ad565b908152604051908190036020019020546001600160a01b031603610e695760405162461bcd60e51b81526020600482015260146024820152732ab735b737bbb71039b7bab931b29031b430b4b760611b6044820152606401610746565b81516020808401919091206000818152600390925260409091205460ff1615610ec95760405162461bcd60e51b8152602060048201526012602482015271141c9bdbd988185b1c9958591e481d5cd95960721b6044820152606401610746565b60008585610ed646611110565b86604051602001610eea9493929190611bc1565b6040516020818303038152906040528051906020012090506000610f4584610f3f847f19457468657265756d205369676e6564204d6573736167653a0a3332000000006000908152601c91909152603c902090565b906112e4565b9050600486604051610f5791906119ad565b908152604051908190036020019020546001600160a01b03828116911614610fb55760405162461bcd60e51b8152602060048201526011602482015270496e76616c6964207369676e617475726560781b6044820152606401610746565b600083815260036020908152604091829020805460ff191660011790559051610fe2918991899101611c0e565b604051602081830303815290604052805190602001207f82aa4e9c2eea366c623852225fc20df1aa5204b5c88f5166f36574de85e5aa67866040516110279190611bae565b60405180910390a250505061103b60018055565b50505050565b61104961123a565b6001600160a01b0381166110ae5760405162461bcd60e51b815260206004820152602660248201527f4f776e61626c653a206e6577206f776e657220697320746865207a65726f206160448201526564647265737360d01b6064820152608401610746565b610c7c81611294565b6002600154036111095760405162461bcd60e51b815260206004820152601f60248201527f5265656e7472616e637947756172643a207265656e7472616e742063616c6c006044820152606401610746565b6002600155565b60608160010361113e575050604080518082019091526008815267657468657265756d60c01b602082015290565b816089036111695750506040805180820190915260078152663837b63cb3b7b760c91b602082015290565b8161a4b103611196575050604080518082019091526008815267617262697472756d60c01b602082015290565b81600a036111c25750506040805180820190915260088152676f7074696d69736d60c01b602082015290565b816038036111e957505060408051808201909152600381526262736360e81b602082015290565b8161a86a036112175750506040805180820190915260098152686176616c616e63686560b81b602082015290565b50506040805180820190915260078152663ab735b737bbb760c91b602082015290565b6000546001600160a01b03163314610a975760405162461bcd60e51b815260206004820181905260248201527f4f776e61626c653a2063616c6c6572206973206e6f7420746865206f776e65726044820152606401610746565b600080546001600160a01b038381166001600160a01b0319831681178455604051919092169283917f8be0079c531659141344cd1fd0a4f28419497f9722a3daafe3b4186f6b6457e09190a35050565b60008060006112f3858561130a565b915091506113008161134f565b5090505b92915050565b60008082516041036113405760208301516040840151606085015160001a61133487828585611499565b94509450505050611348565b506000905060025b9250929050565b6000816004811115611363576113636115c6565b0361136b5750565b600181600481111561137f5761137f6115c6565b036113cc5760405162461bcd60e51b815260206004820152601860248201527f45434453413a20696e76616c6964207369676e617475726500000000000000006044820152606401610746565b60028160048111156113e0576113e06115c6565b0361142d5760405162461bcd60e51b815260206004820152601f60248201527f45434453413a20696e76616c6964207369676e6174757265206c656e677468006044820152606401610746565b6003816004811115611441576114416115c6565b03610c7c5760405162461bcd60e51b815260206004820152602260248201527f45434453413a20696e76616c6964207369676e6174757265202773272076616c604482015261756560f01b6064820152608401610746565b6000807f7fffffffffffffffffffffffffffffff5d576e7357a4501ddfe92f46681b20a08311156114d05750600090506003611554565b6040805160008082526020820180845289905260ff881692820192909252606081018690526080810185905260019060a0016020604051602081039080840390855afa158015611524573d6000803e3d6000fd5b5050604051601f1901519150506001600160a01b03811661154d57600060019250925050611554565b9150600090505b94509492505050565b60006020828403121561156f57600080fd5b5035919050565b60005b83811015611591578181015183820152602001611579565b50506000910152565b600081518084526115b2816020860160208601611576565b601f01601f19169290920160200192915050565b634e487b7160e01b600052602160045260246000fd5b600581106115fa57634e487b7160e01b600052602160045260246000fd5b9052565b8781526001600160a01b038716602082015260e0604082018190526000906116289083018861159a565b828103606084015261163a818861159a565b9150508460808301528360a083015261165660c08301846115dc565b98975050505050505050565b8981526001600160a01b03891660208201526101206040820181905260009061168d8382018b61159a565b905082810360608401526116a1818a61159a565b90508760808401528660a08401526116bc60c08401876115dc565b8460e08401528281036101008401526116d5818561159a565b9c9b505050505050505050505050565b634e487b7160e01b600052604160045260246000fd5b600082601f83011261170c57600080fd5b813567ffffffffffffffff80821115611727576117276116e5565b604051601f8301601f19908116603f0116810190828211818310171561174f5761174f6116e5565b8160405283815286602085880101111561176857600080fd5b836020870160208301376000602085830101528094505050505092915050565b60008060006060848603121561179d57600080fd5b83359250602084013567ffffffffffffffff8111156117bb57600080fd5b6117c7868287016116fb565b925050604084013590509250925092565b80356001600160a01b03811681146117ef57600080fd5b919050565b6000806040838503121561180757600080fd5b823567ffffffffffffffff81111561181e57600080fd5b61182a858286016116fb565b925050611839602084016117d8565b90509250929050565b60006020828403121561185457600080fd5b813567ffffffffffffffff81111561186b57600080fd5b611877848285016116fb565b949350505050565b6000806040838503121561189257600080fd5b82359150602083013567ffffffffffffffff8111156118b057600080fd5b6118bc858286016116fb565b9150509250929050565b600080600080608085870312156118dc57600080fd5b84359350602085013567ffffffffffffffff808211156118fb57600080fd5b611907888389016116fb565b9450604087013591508082111561191d57600080fd5b611929888389016116fb565b9350606087013591508082111561193f57600080fd5b5061194c878288016116fb565b91505092959194509250565b60006020828403121561196a57600080fd5b610a1d826117d8565b600181811c9082168061198757607f821691505b6020821081036119a757634e487b7160e01b600052602260045260246000fd5b50919050565b600082516119bf818460208701611576565b9190910192915050565b8581526bffffffffffffffffffffffff198560601b166020820152836034820152600083516119ff816054850160208801611576565b605492019182019290925260740195945050505050565b8082018082111561130457634e487b7160e01b600052601160045260246000fd5b601f821115611a8157600081815260208120601f850160051c81016020861015611a5e5750805b601f850160051c820191505b81811015611a7d57828155600101611a6a565b5050505b505050565b815167ffffffffffffffff811115611aa057611aa06116e5565b611ab481611aae8454611973565b84611a37565b602080601f831160018114611ae95760008415611ad15750858301515b600019600386901b1c1916600185901b178555611a7d565b600085815260208120601f198616915b82811015611b1857888601518255948401946001909101908401611af9565b5085821015611b365787850151600019600388901b60f8161c191681555b5050505050600190811b01905550565b606081526000611b59606083018661159a565b8281036020840152611b6b818661159a565b91505060018060a01b0383166040830152949350505050565b604081526000611b97604083018561159a565b905060018060a01b03831660208301529392505050565b602081526000610a1d602083018461159a565b848152600060208551611bd981838601848a01611576565b855190840190611bee81848401858a01611576565b8551910190611c0281848401858901611576565b01019695505050505050565b82815260008251611c26816020850160208701611576565b91909101602001939250505056fea2646970667358221220f683d3ada46fb4ab71099ca730d08faaf8eb893183a7edac46b0430541aaded664736f6c63430008130033",
  "linkReferences": {},
  "deployedLinkReferences": {}
}