{
  "_format": "hh-sol-artifact-1",
  "contractName": "GnosisSafe",
  "sourceName": "app/contracts/dao/GnosisSafe.sol",
  "abi": [
    {
      "anonymous": false,
      "inputs": [
        {
          "indexed": true,
          "internalType": "address",
          "name": "sender",
          "type": "address"
        },
        {
          "indexed": false,
          "internalType": "uint256",
          "name": "value",
          "type": "uint256"
        }
      ],
      "name": "Deposit",
      "type": "event"
    },
    {
      "anonymous": false,
      "inputs": [
        {
          "indexed": true,
          "internalType": "uint256",
          "name": "proposalId",
          "type": "uint256"
        },
        {
          "indexed": false,
          "internalType": "bool",
          "name": "success",
          "type": "bool"
        }
      ],
      "name": "ProposalExecuted",
      "type": "event"
    },
    {
      "inputs": [
        {
          "internalType": "uint256",
          "name": "proposalId",
          "type": "uint256"
        },
        {
          "internalType": "address",
          "name": "target",
          "type": "address"
        },
        {
          "internalType": "uint256",
          "name": "value",
          "type": "uint256"
        },
        {
          "internalType": "bytes",
          "name": "data",
          "type": "bytes"
        }
      ],
      "name": "executeProposal",
      "outputs": [
        {
          "internalType": "bool",
          "name": "",
          "type": "bool"
        }
      ],
      "stateMutability": "nonpayable",
      "type": "function"
    },
    {
      "stateMutability": "payable",
      "type": "receive"
    }
  ],
  "bytecode": "0x608060405234801561001057600080fd5b5061029c806100206000396000f3fe6080604052600436106100225760003560e01c80635d2b52ee1461006357600080fd5b3661005e5760405134815233907fe1fffcc4923d04b559f4d29a8bfc6cda04eb5b0d3c460751c2402c5c5cc9109c9060200160405180910390a2005b600080fd5b34801561006f57600080fd5b5061008361007e366004610154565b610097565b604051901515815260200160405180910390f35b600080846001600160a01b031684846040516100b39190610237565b60006040518083038185875af1925050503d80600081146100f0576040519150601f19603f3d011682016040523d82523d6000602084013e6100f5565b606091505b50509050857f948f4a9cd986f1118c3fbd459f7a22b23c0693e1ca3ef06a6a8be5aa7d39cc038260405161012d911515815260200190565b60405180910390a295945050505050565b634e487b7160e01b600052604160045260246000fd5b6000806000806080858703121561016a57600080fd5b8435935060208501356001600160a01b038116811461018857600080fd5b925060408501359150606085013567ffffffffffffffff808211156101ac57600080fd5b818701915087601f8301126101c057600080fd5b8135818111156101d2576101d261013e565b604051601f8201601f19908116603f011681019083821181831017156101fa576101fa61013e565b816040528281528a602084870101111561021357600080fd5b82602086016020830137600060208483010152809550505050505092959194509250565b6000825160005b81811015610258576020818601810151858301520161023e565b50600092019182525091905056fea2646970667358221220118479fe3314aa0c69ec04399ba9ac17a45a8560f2648c9d491ea575669d59be64736f6c63430008130033",
  "linkReferences": {},
  "deployedLinkReferences": {}
}