{
  "_format": "hh-sol-artifact-1",
  "contractName": "PlatformQGovernor",
  "sourceName": "app/contracts/dao/PlatformQGovernor.sol",
  "abi": [
    {
      "inputs": [
        {
          "internalType": "string",
          "name": "name",
          "type": "string"
        },
        {
          "internalType": "contract ReputationOracle",
          "name": "_reputationOracle",
          "type": "address"
        },
        {
          "internalType": "uint256",
          "name": "initialVotingDelay",
          "type": "uint256"
        },
        {
          "internalType": "uint256",
          "name": "initialVotingPeriod",
          "type": "uint256"
        },
        {
          "internalType": "uint256",
          "name": "initialProposalThreshold",
          "type": "uint256"
        },
        {
          "internalType": "uint256",
          "name": "initialQuorum",
          "type": "uint256"
        }
      ],
      "stateMutability": "nonpayable",
      "type": "constructor"
    },
    {
      "inputs": [],
      "name": "Empty",
      "type": "error"
    },
    {
      "inputs": [],
      "name": "InvalidShortString",
      "type": "error"
    },
    {
      "inputs": [
        {
          "internalType": "string",
          "name": "str",
          "type": "string"
        }
      ],
      "name": "StringTooLong",
      "type": "error"
    },
    {
      "anonymous": false,
      "inputs": [],
      "name": "EIP712DomainChanged",
      "type": "event"
    },
    {
      "anonymous": false,
      "inputs": [
        {
          "indexed": false,
          "internalType": "uint256",
          "name": "proposalId",
          "type": "uint256"
        }
      ],
      "name": "ProposalCanceled",
      "type": "event"
    },
    {
      "anonymous": false,
      "inputs": [
        {
          "indexed": false,
          "internalType": "uint256",
          "name": "proposalId",
          "type": "uint256"
        },
        {
          "indexed": false,
          "internalType": "address",
          "name": "proposer",
          "type": "address"
        },
        {
          "indexed": false,
          "internalType": "address[]",
          "name": "targets",
          "type": "address[]"
        },
        {
          "indexed": false,
          "internalType": "uint256[]",
          "name": "values",
          "type": "uint256[]"
        },
        {
          "indexed": false,
          "internalType": "string[]",
          "name": "signatures",
          "type": "string[]"
        },
        {
          "indexed": false,
          "internalType": "bytes[]",
          "name": "calldatas",
          "type": "bytes[]"
        },
        {
          "indexed": false,
          "internalType": "uint256",
          "name": "voteStart",
          "type": "uint256"
        },
        {
          "indexed": false,
          "internalType": "uint256",
          "name": "voteEnd",
          "type": "uint256"
        },
        {
          "indexed": false,
          "internalType": "string",
          "name": "description",
          "type": "string"
        }
      ],
      "name": "ProposalCreated",
      "type": "event"
    },
    {
      "anonymous": false,
      "inputs": [
        {
          "indexed": false,
          "internalType": "uint256",
          "name": "proposalId",
          "type": "uint256"
        }
      ],
      "name": "ProposalExecuted",
      "type": "event"
    },
    {
      "anonymous": false,
      "inputs": [
        {
          "indexed": false,
          "internalType": "uint256",
          "name": "oldProposalThreshold",
          "type": "uint256"
        },
        {
          "indexed": false,
          "internalType": "uint256",
          "name": "newProposalThreshold",
          "type": "uint256"
        }
      ],
      "name": "ProposalThresholdSet",
      "type": "event"
    },
    {
      "anonymous": false,
      "inputs": [
        {
          "indexed": true,
          "internalType": "address",
          "name": "voter",
          "type": "address"
        },
        {
          "indexed": false,
          "internalType": "uint256",
          "name": "proposalId",
          "type": "uint256"
        },
        {
          "indexed": false,
          "internalType": "uint8",
          "name": "support",
          "type": "uint8"
        },
        {
          "indexed": false,
          "internalType": "uint256",
          "name": "weight",
          "type": "uint256"
        },
        {
          "indexed": false,
          "internalType": "string",
          "name": "reason",
          "type": "string"
        }
      ],
      "name": "VoteCast",
      "type": "event"
    },
    {
      "anonymous": false,
      "inputs": [
        {
          "indexed": true,
          "internalType": "address",
          "name": "voter",
          "type": "address"
        },
        {
          "indexed": false,
          "internalType": "uint256",
          "name": "proposalId",
          "type": "uint256"
        },
        {
          "indexed": false,
          "internalType": "uint8",
          "name": "support",
          "type": "uint8"
        },
        {
          "indexed": false,
          "internalType": "uint256",
          "name": "weight",
          "type": "uint256"
        },
        {
          "indexed": false,
          "internalType": "string",
          "name": "reason",
          "type": "string"
        },
        {
          "indexed": false,
          "internalType": "bytes",
          "name": "params",
          "type": "bytes"
        }
      ],
      "name": "VoteCastWithParams",
      "type": "event"
    },
    {
      "anonymous": false,
      "inputs": [
        {
          "indexed": false,
          "internalType": "uint256",
          "name": "oldVotingDelay",
          "type": "uint256"
        },
        {
          "indexed": false,
          "internalType": "uint256",
          "name": "newVotingDelay",
          "type": "uint256"
        }
      ],
      "name": "VotingDelaySet",
      "type": "event"
    },
    {
      "anonymous": false,
      "inputs": [
        {
          "indexed": false,
          "internalType": "uint256",
          "name": "oldVotingPeriod",
          "type": "uint256"
        },
        {
          "indexed": false,
          "internalType": "uint256",
          "name": "newVotingPeriod",
          "type": "uint256"
        }
      ],
      "name": "VotingPeriodSet",
      "type": "event"
    },
    {
      "inputs": [],
      "name": "BALLOT_TYPEHASH",
      "outputs": [
        {
          "internalType": "bytes32",
          "name": "",
          "type": "bytes32"
        }
      ],
      "stateMutability": "view",
      "type": "function"
    },
    {
      "inputs": [],
      "name": "CLOCK_MODE",
      "outputs": [
        {
          "internalType": "string",
          "name": "",
          "type": "string"
        }
      ],
      "stateMutability": "pure",
      "type": "function"
    },
    {
      "inputs": [],
      "name": "COUNTING_MODE",
      "outputs": [
        {
          "internalType": "string",
          "name": "",
          "type": "string"
        }
      ],
      "stateMutability": "pure",
      "type": "function"
    },
    {
      "inputs": [],
      "name": "EXTENDED_BALLOT_TYPEHASH",
      "outputs": [
        {
          "internalType": "bytes32",
          "name": "",
          "type": "bytes32"
        }
      ],
      "stateMutability": "view",
      "type": "function"
    },
    {
      "inputs": [
        {
          "internalType": "address[]",
          "name": "targets",
          "type": "address[]"
        },
        {
          "internalType": "uint256[]",
          "name": "values",
          "type": "uint256[]"
        },
        {
          "internalType": "bytes[]",
          "name": "calldatas",
          "type": "bytes[]"
        },
        {
          "internalType": "bytes32",
          "name": "descriptionHash",
          "type": "bytes32"
        }
      ],
      "name": "cancel",
      "outputs": [
        {
          "internalType": "uint256",
          "name": "",
          "type": "uint256"
        }
      ],
      "stateMutability": "nonpayable",
      "type": "function"
    },
    {
      "inputs": [
        {
          "internalType": "uint256",
          "name": "proposalId",
          "type": "uint256"
        },
        {
          "internalType": "uint8",
          "name": "support",
          "type": "uint8"
        }
      ],
      "name": "castVote",
      "outputs": [
        {
          "internalType": "uint256",
          "name": "",
          "type": "uint256"
        }
      ],
      "stateMutability": "nonpayable",
      "type": "function"
    },
    {
      "inputs": [
        {
          "internalType": "uint256",
          "name": "proposalId",
          "type": "uint256"
        },
        {
          "internalType": "uint8",
          "name": "support",
          "type": "uint8"
        },
        {
          "internalType": "uint8",
          "name": "v",
          "type": "uint8"
        },
        {
          "internalType": "bytes32",
          "name": "r",
          "type": "bytes32"
        },
        {
          "internalType": "bytes32",
          "name": "s",
          "type": "bytes32"
        }
      ],
      "name": "castVoteBySig",
      "outputs": [
        {
          "internalType": "uint256",
          "name": "",
          "type": "uint256"
        }
      ],
      "stateMutability": "nonpayable",
      "type": "function"
    },
    {
      "inputs": [
        {
          "internalType": "uint256",
          "name": "proposalId",
          "type": "uint256"
        },
        {
          "internalType": "uint8",
          "name": "support",
          "type": "uint8"
        },
        {
          "internalType": "string",
          "name": "reason",
          "type": "string"
        }
      ],
      "name": "castVoteWithReason",
      "outputs": [
        {
          "internalType": "uint256",
          "name": "",
          "type": "uint256"
        }
      ],
      "stateMutability": "nonpayable",
      "type": "function"
    },
    {
      "inputs": [
        {
          "internalType": "uint256",
          "name": "proposalId",
          "type": "uint256"
        },
        {
          "internalType": "uint8",
          "name": "support",
          "type": "uint8"
        },
        {
          "internalType": "string",
          "name": "reason",
          "type": "string"
        },
        {
          "internalType": "bytes",
          "name": "params",
          "type": "bytes"
        }
      ],
      "name": "castVoteWithReasonAndParams",
      "outputs": [
        {
          "internalType": "uint256",
          "name": "",
          "type": "uint256"
        }
      ],
      "stateMutability": "nonpayable",
      "type": "function"
    },
    {
      "inputs": [
        {
          "internalType": "uint256",
          "name": "proposalId",
          "type": "uint256"
        },
        {
          "internalType": "uint8",
          "name": "support",
          "type": "uint8"
        },
        {
          "internalType": "string",
          "name": "reason",
          "type": "string"
        },
        {
          "internalType": "bytes",
          "name": "params",
          "type": "bytes"
        },
        {
          "internalType": "uint8",
          "name": "v",
          "type": "uint8"
        },
        {
          "internalType": "bytes32",
          "name": "r",
          "type": "bytes32"
        },
        {
          "internalType": "bytes32",
          "name": "s",
          "type": "bytes32"
        }
      ],
      "name": "castVoteWithReasonAndParamsBySig",
      "outputs": [
        {
          "internalType": "uint256",
          "name": "",
          "type": "uint256"
        }
      ],
      "stateMutability": "nonpayable",
      "type": "function"
    },
    {
      "inputs": [],
      "name": "clock",
      "outputs": [
        {
          "internalType": "uint48",
          "name": "",
          "type": "uint48"
        }
      ],
      "stateMutability": "view",
      "type": "function"
    },
    {
      "inputs": [],
      "name": "eip712Domain",
      "outputs": [
        {
          "internalType": "bytes1",
          "name": "fields",
          "type": "bytes1"
        },
        {
          "internalType": "string",
          "name": "name",
          "type": "string"
        },
        {
          "internalType": "string",
          "name": "version",
          "type": "string"
        },
        {
          "internalType": "uint256",
          "name": "chainId",
          "type": "uint256"
        },
        {
          "internalType": "address",
          "name": "verifyingContract",
          "type": "address"
        },
        {
          "internalType": "bytes32",
          "name": "salt",
          "type": "bytes32"
        },
        {
          "internalType": "uint256[]",
          "name": "extensions",
          "type": "uint256[]"
        }
      ],
      "stateMutability": "view",
      "type": "function"
    },
    {
      "inputs": [
        {
          "internalType": "address[]",
          "name": "targets",
          "type": "address[]"
        },
        {
          "internalType": "uint256[]",
          "name": "values",
          "type": "uint256[]"
        },
        {
          "internalType": "bytes[]",
          "name": "calldatas",
          "type": "bytes[]"
        },
        {
          "internalType": "bytes32",
          "name": "descriptionHash",
          "type": "bytes32"
        }
      ],
      "name": "execute",
      "outputs": [
        {
          "internalType": "uint256",
          "name": "",
          "type": "uint256"
        }
      ],
      "stateMutability": "payable",
      "type": "function"
    },
    {
      "inputs": [
        {
          "internalType": "address",
          "name": "account",
          "type": "address"
        },
        {
          "internalType": "uint256",
          "name": "timepoint",
          "type": "uint256"
        }
      ],
      "name": "getVotes",
      "outputs": [
        {
          "internalType": "uint256",
          "name": "",
          "type": "uint256"
        }
      ],
      "stateMutability": "view",
      "type": "function"
    },
    {
      "inputs": [
        {
          "internalType": "address",
          "name": "account",
          "type": "address"
        },
        {
          "internalType": "uint256",
          "name": "timepoint",
          "type": "uint256"
        },
        {
          "internalType": "bytes",
          "name": "params",
          "type": "bytes"
        }
      ],
      "name": "getVotesWithParams",
      "outputs": [
        {
          "internalType": "uint256",
          "name": "",
          "type": "uint256"
        }
      ],
      "stateMutability": "view",
      "type": "function"
    },
    {
      "inputs": [
        {
          "internalType": "uint256",
          "name": "proposalId",
          "type": "uint256"
        },
        {
          "internalType": "address",
          "name": "account",
          "type": "address"
        }
      ],
      "name": "hasVoted",
      "outputs": [
        {
          "internalType": "bool",
          "name": "",
          "type": "bool"
        }
      ],
      "stateMutability": "view",
      "type": "function"
    },
    {
      "inputs": [
        {
          "internalType": "address[]",
          "name": "targets",
          "type": "address[]"
        },
        {
          "internalType": "uint256[]",
          "name": "values",
          "type": "uint256[]"
        },
        {
          "internalType": "bytes[]",
          "name": "calldatas",
          "type": "bytes[]"
        },
        {
          "internalType": "bytes32",
          "name": "descriptionHash",
          "type": "bytes32"
        }
      ],
      "name": "hashProposal",
      "outputs": [
        {
          "internalType": "uint256",
          "name": "",
          "type": "uint256"
        }
      ],
      "stateMutability": "pure",
      "type": "function"
    },
    {
      "inputs": [],
      "name": "name",
      "outputs": [
        {
          "internalType": "string",
          "name": "",
          "type": "string"
        }
      ],
      "stateMutability": "view",
      "type": "function"
    },
    {
      "inputs": [
        {
          "internalType": "address",
          "name": "",
          "type": "address"
        },
        {
          "internalType": "address",
          "name": "",
          "type": "address"
        },
        {
          "internalType": "uint256[]",
          "name": "",
          "type": "uint256[]"
        },
        {
          "internalType": "uint256[]",
          "name": "",
          "type": "uint256[]"
        },
        {
          "internalType": "bytes",
          "name": "",
          "type": "bytes"
        }
      ],
      "name": "onERC1155BatchReceived",
      "outputs": [
        {
          "internalType": "bytes4",
          "name": "",
          "type": "bytes4"
        }
      ],
      "stateMutability": "nonpayable",
      "type": "function"
    },
    {
      "inputs": [
        {
          "internalType": "address",
          "name": "",
          "type": "address"
        },
        {
          "internalType": "address",
          "name": "",
          "type": "address"
        },
        {
          "internalType": "uint256",
          "name": "",
          "type": "uint256"
        },
        {
          "internalType": "uint256",
          "name": "",
          "type": "uint256"
        },
        {
          "internalType": "bytes",
          "name": "",
          "type": "bytes"
        }
      ],
      "name": "onERC1155Received",
      "outputs": [
        {
          "internalType": "bytes4",
          "name": "",
          "type": "bytes4"
        }
      ],
      "stateMutability": "nonpayable",
      "type": "function"
    },
    {
      "inputs": [
        {
          "internalType": "address",
          "name": "",
          "type": "address"
        },
        {
          "internalType": "address",
          "name": "",
          "type": "address"
        },
        {
          "internalType": "uint256",
          "name": "",
          "type": "uint256"
        },
        {
          "internalType": "bytes",
          "name": "",
          "type": "bytes"
        }
      ],
      "name": "onERC721Received",
      "outputs": [
        {
          "internalType": "bytes4",
          "name": "",
          "type": "bytes4"
        }
      ],
      "stateMutability": "nonpayable",
      "type": "function"
    },
    {
      "inputs": [
        {
          "internalType": "uint256",
          "name": "proposalId",
          "type": "uint256"
        }
      ],
      "name": "proposalDeadline",
      "outputs": [
        {
          "internalType": "uint256",
          "name": "",
          "type": "uint256"
        }
      ],
      "stateMutability": "view",
      "type": "function"
    },
    {
      "inputs": [
        {
          "internalType": "uint256",
          "name": "proposalId",
          "type": "uint256"
        }
      ],
      "name": "proposalProposer",
      "outputs": [
        {
          "internalType": "address",
          "name": "",
          "type": "address"
        }
      ],
      "stateMutability": "view",
      "type": "function"
    },
    {
      "inputs": [
        {
          "internalType": "uint256",
          "name": "proposalId",
          "type": "uint256"
        }
      ],
      "name": "proposalSnapshot",
      "outputs": [
        {
          "internalType": "uint256",
          "name": "",
          "type": "uint256"
        }
      ],
      "stateMutability": "view",
      "type": "function"
    },
    {
      "inputs": [],
      "name": "proposalThreshold",
      "outputs": [
        {
          "internalType": "uint256",
          "name": "",
          "type": "uint256"
        }
      ],
      "stateMutability": "view",
      "type": "function"
    },
    {
      "inputs": [
        {
          "internalType": "uint256",
          "name": "proposalId",
          "type": "uint256"
        }
      ],
      "name": "proposalVotes",
      "outputs": [
        {
          "internalType": "uint256",
          "name": "againstVotes",
          "type": "uint256"
        },
        {
          "internalType": "uint256",
          "name": "forVotes",
          "type": "uint256"
        },
        {
          "internalType": "uint256",
          "name": "abstainVotes",
          "type": "uint256"
        }
      ],
      "stateMutability": "view",
      "type": "function"
    },
    {
      "inputs": [
        {
          "internalType": "address[]",
          "name": "targets",
          "type": "address[]"
        },
        {
          "internalType": "uint256[]",
          "name": "values",
          "type": "uint256[]"
        },
        {
          "internalType": "bytes[]",
          "name": "calldatas",
          "type": "bytes[]"
        },
        {
          "internalType": "string",
          "name": "description",
          "type": "string"
        }
      ],
      "name": "propose",
      "outputs": [
        {
          "internalType": "uint256",
          "name": "",
          "type": "uint256"
        }
      ],
      "stateMutability": "nonpayable",
      "type": "function"
    },
    {
      "inputs": [
        {
          "internalType": "uint256",
          "name": "",
          "type": "uint256"
        }
      ],
      "name": "quorum",
      "outputs": [
        {
          "internalType": "uint256",
          "name": "",
          "type": "uint256"
        }
      ],
      "stateMutability": "view",
      "type": "function"
    },
    {
      "inputs": [
        {
          "internalType": "address",
          "name": "target",
          "type": "address"
        },
        {
          "internalType": "uint256",
          "name": "value",
          "type": "uint256"
        },
        {
          "internalType": "bytes",
          "name": "data",
          "type": "bytes"
        }
      ],
      "name": "relay",
      "outputs": [],
      "stateMutability": "payable",
      "type": "function"
    },
    {
      "inputs": [],
      "name": "reputationOracle",
      "outputs": [
        {
          "internalType": "contract ReputationOracle",
          "name": "",
          "type": "address"
        }
      ],
      "stateMutability": "view",
      "type": "function"
    },
    {
      "inputs": [
        {
          "internalType": "uint256",
          "name": "newProposalThreshold",
          "type": "uint256"
        }
      ],
      "name": "setProposalThreshold",
      "outputs": [],
      "stateMutability": "nonpayable",
      "type": "function"
    },
    {
      "inputs": [
        {
          "internalType": "uint256",
          "name": "newVotingDelay",
          "type": "uint256"
        }
      ],
      "name": "setVotingDelay",
      "outputs": [],
      "stateMutability": "nonpayable",
      "type": "function"
    },
    {
      "inputs": [
        {
          "internalType": "uint256",
          "name": "newVotingPeriod",
          "type": "uint256"
        }
      ],
      "name": "setVotingPeriod",
      "outputs": [],
      "stateMutability": "nonpayable",
      "type": "function"
    },
    {
      "inputs": [
        {
          "internalType": "uint256",
          "name": "proposalId",
          "type": "uint256"
        }
      ],
      "name": "state",
      "outputs": [
        {
          "internalType": "enum IGovernor.ProposalState",
          "name": "",
          "type": "uint8"
        }
      ],
      "stateMutability": "view",
      "type": "function"
    },
    {
      "inputs": [
        {
          "internalType": "bytes4",
          "name": "interfaceId",
          "type": "bytes4"
        }
      ],
      "name": "supportsInterface",
      "outputs": [
        {
          "internalType": "bool",
          "name": "",
          "type": "bool"
        }
      ],
      "stateMutability": "view",
      "type": "function"
    },
    {
      "inputs": [],
      "name": "version",
      "outputs": [
        {
          "internalType": "string",
          "name": "",
          "type": "string"
        }
      ],
      "stateMutability": "view",
      "type": "function"
    },
    {
      "inputs": [],
      "name": "votingDelay",
      "outputs": [
        {
          "internalType": "uint256",
          "name": "",
          "type": "uint256"
        }
      ],
      "stateMutability": "view",
      "type": "function"
    },
    {
      "inputs": [],
      "name": "votingPeriod",
      "outputs": [
        {
          "internalType": "uint256",
          "name": "",
          "type": "uint256"
        }
      ],
      "stateMutability": "view",
      "type": "function"
    },
    {
      "stateMutability": "payable",
      "type": "receive"
    }
  ],
  "bytecode": "0x6101806040523480156200001257600080fd5b50604051620039633803806200396383398101604081905262000035916200035d565b8383838880620000596040805180820190915260018152603160f81b602082015290565b620000668260006200015f565b61012052620000778160016200015f565b61014052815160208084019190912060e052815190820120610100524660a0526200010560e05161010051604080517f8b73c3c69bb8fe3d512ecc4cf759cc79239f7b179b0ffacaa9a75d522b39400f60208201529081019290925260608201524660808201523060a082015260009060c00160405160208183030381529060405280519060200120905090565b60805250503060c05260026200011c8282620004de565b506200012a90508362000198565b6200013582620001d9565b620001408162000280565b5050506001600160a01b0390941661016052505050600a555062000604565b60006020835110156200017f576200017783620002c1565b905062000192565b816200018c8482620004de565b5060ff90505b92915050565b60065460408051918252602082018390527fc565b045403dc03c2eea82b81a0465edad9e2e7fc4d97e11421c209da93d7a93910160405180910390a1600655565b600081116200023f5760405162461bcd60e51b815260206004820152602760248201527f476f7665726e6f7253657474696e67733a20766f74696e6720706572696f6420604482015266746f6f206c6f7760c81b60648201526084015b60405180910390fd5b60075460408051918252602082018390527f7e3f7f0708a84de9203036abaa450dccc85ad5ff52f78c170f3edb55cf5e8828910160405180910390a1600755565b60085460408051918252602082018390527fccb45da8d5717e6c4544694297c4ba5cf151d455c9bb0ed4fc7a38411bc05461910160405180910390a1600855565b600080829050601f81511115620002ef578260405163305a27a960e01b8152600401620002369190620005aa565b8051620002fc82620005df565b179392505050565b634e487b7160e01b600052604160045260246000fd5b60005b83811015620003375781810151838201526020016200031d565b50506000910152565b80516001600160a01b03811681146200035857600080fd5b919050565b60008060008060008060c087890312156200037757600080fd5b86516001600160401b03808211156200038f57600080fd5b818901915089601f830112620003a457600080fd5b815181811115620003b957620003b962000304565b604051601f8201601f19908116603f01168101908382118183101715620003e457620003e462000304565b816040528281528c6020848701011115620003fe57600080fd5b620004118360208301602088016200031a565b809a505050505050620004276020880162000340565b945060408701519350606087015192506080870151915060a087015190509295509295509295565b600181811c908216806200046457607f821691505b6020821081036200048557634e487b7160e01b600052602260045260246000fd5b50919050565b601f821115620004d957600081815260208120601f850160051c81016020861015620004b45750805b601f850160051c820191505b81811015620004d557828155600101620004c0565b5050505b505050565b81516001600160401b03811115620004fa57620004fa62000304565b62000512816200050b84546200044f565b846200048b565b602080601f8311600181146200054a5760008415620005315750858301515b600019600386901b1c1916600185901b178555620004d5565b600085815260208120601f198616915b828110156200057b578886015182559484019460019091019084016200055a565b50858210156200059a5787850151600019600388901b60f8161c191681555b5050505050600190811b01905550565b6020815260008251806020840152620005cb8160408501602087016200031a565b601f01601f19169190910160400192915050565b80516020808301519190811015620004855760001960209190910360031b1b16919050565b60805160a05160c05160e051610100516101205161014051610160516132f262000671600039600081816108620152611d140152600061126a0152600061124001526000611fc701526000611f9f01526000611efa01526000611f2401526000611f4e01526132f26000f3fe6080604052600436106102295760003560e01c806370b0f66011610123578063c28bc2fa116100ab578063eb9019d41161006f578063eb9019d4146107c2578063ece40cc1146107e2578063f23a6e6114610802578063f8ce560a1461082e578063fad844c11461085057600080fd5b8063c28bc2fa146106f5578063c59057e414610708578063dd4e2ba514610728578063deaaa7cc1461076e578063ea0217cf146107a257600080fd5b806391ddadf4116100f257806391ddadf4146106385780639a802a6d1461065b578063b58131b01461067b578063bc197c8114610690578063c01f9e37146106bc57600080fd5b806370b0f660146105b05780637b3c71d3146105d05780637d5e81e2146105f057806384b0196e1461061057600080fd5b80633932abb1116101b15780634bf5d7e9116101755780634bf5d7e9146104b8578063544ffc9c146104f157806354fd4d501461054657806356781388146105705780635f398a141461059057600080fd5b80633932abb1146103ec5780633bccf4fd146104015780633e4f49e614610421578063438596321461044e578063452115d61461049857600080fd5b8063143489d0116101f8578063143489d0146102d6578063150b7a021461032b5780632656227d1461036f5780632d63f693146103825780632fe3e261146103b857600080fd5b806301ffc9a71461024057806302a251a314610275578063034201811461029457806306fdde03146102b457600080fd5b3661023b57005b60405180910390fd5b005b600080fd5b34801561024c57600080fd5b5061026061025b36600461254b565b610884565b60405190151581526020015b60405180910390f35b34801561028157600080fd5b506007545b60405190815260200161026c565b3480156102a057600080fd5b506102866102af366004612690565b610921565b3480156102c057600080fd5b506102c9610a19565b60405161026c9190612786565b3480156102e257600080fd5b506103136102f1366004612799565b600090815260036020526040902054600160401b90046001600160a01b031690565b6040516001600160a01b03909116815260200161026c565b34801561033757600080fd5b506103566103463660046127c9565b630a85bd0160e11b949350505050565b6040516001600160e01b0319909116815260200161026c565b61028661037d36600461299f565b610aab565b34801561038e57600080fd5b5061028661039d366004612799565b6000908152600360205260409020546001600160401b031690565b3480156103c457600080fd5b506102867fb3b3f3b703cd84ce352197dcff232b1b5d3cfb2025ce47cf04742d0651f1af8881565b3480156103f857600080fd5b50600654610286565b34801561040d57600080fd5b5061028661041c366004612a2e565b610bd7565b34801561042d57600080fd5b5061044161043c366004612799565b610c4d565b60405161026c9190612a92565b34801561045a57600080fd5b50610260610469366004612aba565b60008281526009602090815260408083206001600160a01b038516845260030190915290205460ff1692915050565b3480156104a457600080fd5b506102866104b336600461299f565b610c5e565b3480156104c457600080fd5b5060408051808201909152601081526f36b7b2329eb13637b1b5b73ab6b132b960811b60208201526102c9565b3480156104fd57600080fd5b5061052b61050c366004612799565b6000908152600960205260409020805460018201546002909201549092565b6040805193845260208401929092529082015260600161026c565b34801561055257600080fd5b506040805180820190915260018152603160f81b60208201526102c9565b34801561057c57600080fd5b5061028661058b366004612ae6565b610d65565b34801561059c57600080fd5b506102866105ab366004612b09565b610d8e565b3480156105bc57600080fd5b506102396105cb366004612799565b610dd8565b3480156105dc57600080fd5b506102866105eb366004612b8c565b610e1a565b3480156105fc57600080fd5b5061028661060b366004612be5565b610e62565b34801561061c57600080fd5b50610625611232565b60405161026c9796959493929190612cd4565b34801561064457600080fd5b5060405165ffffffffffff4316815260200161026c565b34801561066757600080fd5b50610286610676366004612d36565b6112ba565b34801561068757600080fd5b506102866112d1565b34801561069c57600080fd5b506103566106ab366004612d8c565b63bc197c8160e01b95945050505050565b3480156106c857600080fd5b506102866106d7366004612799565b6000908152600360205260409020600101546001600160401b031690565b610239610703366004612e1b565b6112e1565b34801561071457600080fd5b5061028661072336600461299f565b6113a8565b34801561073457600080fd5b506040805180820190915260208082527f737570706f72743d627261766f2671756f72756d3d666f722c6162737461696e908201526102c9565b34801561077a57600080fd5b506102867f150214d74d59b7d1e90c73fc22ef3d991dd0a76b046543d4d80ab92d2a50328f81565b3480156107ae57600080fd5b506102396107bd366004612799565b6113e2565b3480156107ce57600080fd5b506102866107dd366004612e5c565b611421565b3480156107ee57600080fd5b506102396107fd366004612799565b611442565b34801561080e57600080fd5b5061035661081d366004612e86565b63f23a6e6160e01b95945050505050565b34801561083a57600080fd5b50610286610849366004612799565b50600a5490565b34801561085c57600080fd5b506103137f000000000000000000000000000000000000000000000000000000000000000081565b600063288ace0360e11b6318df743f60e31b63bf26d89760e01b6379dd796f60e01b6001600160e01b031986168214806108ca57506001600160e01b0319868116908216145b806108e157506001600160e01b0319868116908516145b806108fc57506001600160e01b03198616630271189760e51b145b8061091757506301ffc9a760e01b6001600160e01b03198716145b9695505050505050565b6000806109c56109bd7fb3b3f3b703cd84ce352197dcff232b1b5d3cfb2025ce47cf04742d0651f1af888c8c8c8c60405161095d929190612eea565b60405180910390208b805190602001206040516020016109a2959493929190948552602085019390935260ff9190911660408401526060830152608082015260a00190565b60405160208183030381529060405280519060200120611481565b8686866114ae565b9050610a0b8a828b8b8b8080601f0160208091040260200160405190810160405280939291908181526020018383808284376000920191909152508d92506114cc915050565b9a9950505050505050505050565b606060028054610a2890612efa565b80601f0160208091040260200160405190810160405280929190818152602001828054610a5490612efa565b8015610aa15780601f10610a7657610100808354040283529160200191610aa1565b820191906000526020600020905b815481529060010190602001808311610a8457829003601f168201915b5050505050905090565b600080610aba868686866113a8565b90506000610ac782610c4d565b90506004816007811115610add57610add612a7c565b1480610afa57506005816007811115610af857610af8612a7c565b145b610b505760405162461bcd60e51b815260206004820152602160248201527f476f7665726e6f723a2070726f706f73616c206e6f74207375636365737366756044820152601b60fa1b6064820152608401610230565b60008281526003602052604090819020600201805460ff19166001179055517f712ae1383f79ac853f8d882153778e0260ef8f03b504e2866e0593e04d2b291f90610b9e9084815260200190565b60405180910390a1610bb38288888888611621565b610bc082888888886116ae565b610bcd8288888888611621565b5095945050505050565b604080517f150214d74d59b7d1e90c73fc22ef3d991dd0a76b046543d4d80ab92d2a50328f602082015290810186905260ff851660608201526000908190610c25906109bd906080016109a2565b9050610c42878288604051806020016040528060008152506117a4565b979650505050505050565b6000610c58826117d0565b92915050565b600080610c6d868686866113a8565b90506000610c7a82610c4d565b6007811115610c8b57610c8b612a7c565b14610cd85760405162461bcd60e51b815260206004820152601c60248201527f476f7665726e6f723a20746f6f206c61746520746f2063616e63656c000000006044820152606401610230565b600081815260036020526040902054600160401b90046001600160a01b0316336001600160a01b031614610d595760405162461bcd60e51b815260206004820152602260248201527f476f7665726e6f723a206f6e6c792070726f706f7365722063616e2063616e63604482015261195b60f21b6064820152608401610230565b61091786868686611905565b600080339050610d86848285604051806020016040528060008152506117a4565b949350505050565b600080339050610c4287828888888080601f0160208091040260200160405190810160405280939291908181526020018383808284376000920191909152508a92506114cc915050565b333014610df75760405162461bcd60e51b815260040161023090612f34565b610e0e565b80610e076004611a23565b03610dfc57505b610e1781611aa2565b50565b60008033905061091786828787878080601f0160208091040260200160405190810160405280939291908181526020018383808284376000920191909152506117a492505050565b600033610e6f8184611ae3565b610ebb5760405162461bcd60e51b815260206004820152601d60248201527f476f7665726e6f723a2070726f706f73657220726573747269637465640000006044820152606401610230565b65ffffffffffff4316610ecc6112d1565b610edb836107dd600185612f81565b1015610f435760405162461bcd60e51b815260206004820152603160248201527f476f7665726e6f723a2070726f706f73657220766f7465732062656c6f7720706044820152701c9bdc1bdcd85b081d1a1c995cda1bdb19607a1b6064820152608401610230565b6000610f5888888888805190602001206113a8565b90508651885114610f7b5760405162461bcd60e51b815260040161023090612f94565b8551885114610f9c5760405162461bcd60e51b815260040161023090612f94565b6000885111610fed5760405162461bcd60e51b815260206004820152601860248201527f476f7665726e6f723a20656d7074792070726f706f73616c00000000000000006044820152606401610230565b6000818152600360205260409020546001600160401b03161561105c5760405162461bcd60e51b815260206004820152602160248201527f476f7665726e6f723a2070726f706f73616c20616c72656164792065786973746044820152607360f81b6064820152608401610230565b600061106760065490565b6110719084612fd5565b9050600061107e60075490565b6110889083612fd5565b90506040518060e0016040528061109e84611bd4565b6001600160401b031681526001600160a01b0387166020820152600060408201526060016110cb83611bd4565b6001600160401b039081168252600060208084018290526040808501839052606094850183905288835260038252918290208551815492870151878501519186166001600160e01b031990941693909317600160401b6001600160a01b039094168402176001600160e01b0316600160e01b60e09290921c91909102178155938501516080860151908416921c0217600183015560a08301516002909201805460c09094015161ffff1990941692151561ff00191692909217610100931515939093029290921790558a517f7d84a6263ae0d98d3329bd7b46bb4e8d6f98cd35a7adb45c274c8b7fd5ebd5e091859188918e918e918111156111cf576111cf6125d3565b60405190808252806020026020018201604052801561120257816020015b60608152602001906001900390816111ed5790505b508d88888f60405161121c99989796959493929190613079565b60405180910390a1509098975050505050505050565b6000606080828080836112657f000000000000000000000000000000000000000000000000000000000000000083611c40565b6112907f00000000000000000000000000000000000000000000000000000000000000006001611c40565b60408051600080825260208201909252600f60f81b9b939a50919850469750309650945092509050565b60006112c7848484611ceb565b90505b9392505050565b60006112dc60085490565b905090565b3330146113005760405162461bcd60e51b815260040161023090612f34565b611317565b806113106004611a23565b0361130557505b600080856001600160a01b0316858585604051611335929190612eea565b60006040518083038185875af1925050503d8060008114611372576040519150601f19603f3d011682016040523d82523d6000602084013e611377565b606091505b509150915061139f828260405180606001604052806028815260200161326e60289139611df2565b50505050505050565b6000848484846040516020016113c19493929190613150565b60408051601f19818403018152919052805160209091012095945050505050565b3330146114015760405162461bcd60e51b815260040161023090612f34565b611418565b806114116004611a23565b0361140657505b610e1781611e0b565b60006112ca838361143d60408051602081019091526000815290565b611ceb565b3330146114615760405162461bcd60e51b815260040161023090612f34565b611478565b806114716004611a23565b0361146657505b610e1781611eac565b6000610c5861148e611eed565b8360405161190160f01b8152600281019290925260228201526042902090565b60008060006114bf87878787612018565b91509150610bcd816120dc565b600085815260036020526040812060016114e588610c4d565b60078111156114f6576114f6612a7c565b1461154f5760405162461bcd60e51b815260206004820152602360248201527f476f7665726e6f723a20766f7465206e6f742063757272656e746c792061637460448201526269766560e81b6064820152608401610230565b80546000906115699088906001600160401b031686611ceb565b90506115788888888488612226565b83516000036115cd57866001600160a01b03167fb8e138887d0aa13bab447e82de9d5c1777041ecd21ca36ba824ff1e6c07ddda4898884896040516115c0949392919061319b565b60405180910390a2610c42565b866001600160a01b03167fe2babfbac5889a709b63bb7f598b324e08bc5a4fb9ec647fb3cbc9ec07eb8712898884898960405161160e9594939291906131c3565b60405180910390a2979650505050505050565b6116a7565b84518110156116a557306001600160a01b031685828151811061164b5761164b613209565b60200260200101516001600160a01b0316036116955761169583828151811061167657611676613209565b60200260200101518051906020012060046123a090919063ffffffff16565b61169e8161321f565b9050611626565b505b5050505050565b600060405180606001604052806027815260200161329660279139905060005b855181101561139f576000808783815181106116ec576116ec613209565b60200260200101516001600160a01b031687848151811061170f5761170f613209565b602002602001015187858151811061172957611729613209565b602002602001015160405161173e9190613238565b60006040518083038185875af1925050503d806000811461177b576040519150601f19603f3d011682016040523d82523d6000602084013e611780565b606091505b5091509150611790828286611df2565b5050508061179d9061321f565b90506116ce565b60006117c7858585856117c260408051602081019091526000815290565b6114cc565b95945050505050565b6000818152600360205260408120600281015460ff16156117f45750600792915050565b6002810154610100900460ff161561180f5750600292915050565b6000838152600360205260408120546001600160401b0316908190036118775760405162461bcd60e51b815260206004820152601d60248201527f476f7665726e6f723a20756e6b6e6f776e2070726f706f73616c2069640000006044820152606401610230565b65ffffffffffff431680821061189257506000949350505050565b6000858152600360205260409020600101546001600160401b03168181106118c05750600195945050505050565b6118c9866123dc565b80156118e8575060008681526009602052604090208054600190910154115b156118f95750600495945050505050565b50600395945050505050565b600080611914868686866113a8565b9050600061192182610c4d565b9050600281600781111561193757611937612a7c565b141580156119575750600681600781111561195457611954612a7c565b14155b80156119755750600781600781111561197257611972612a7c565b14155b6119c15760405162461bcd60e51b815260206004820152601d60248201527f476f7665726e6f723a2070726f706f73616c206e6f74206163746976650000006044820152606401610230565b60008281526003602052604090819020600201805461ff001916610100179055517f789cf55be980739dad1d0699b93b58e806b51c9d96619bfa8fe0a28abaa7b30c90611a119084815260200190565b60405180910390a15095945050505050565b6000611a3e8254600f81810b600160801b909204900b131590565b15611a5c57604051631ed9509560e11b815260040160405180910390fd5b508054600f0b6000818152600180840160205260408220805492905583546fffffffffffffffffffffffffffffffff191692016001600160801b03169190911790915590565b60065460408051918252602082018390527fc565b045403dc03c2eea82b81a0465edad9e2e7fc4d97e11421c209da93d7a93910160405180910390a1600655565b80516000906034811015611afb576001915050610c58565b82810160131901516001600160a01b031981166b046e0e4dee0dee6cae47a60f60a31b14611b2e57600192505050610c58565b600080611b3c602885612f81565b90505b83811015611bb357600080611b73888481518110611b5f57611b5f613209565b01602001516001600160f81b031916612428565b9150915081611b8b5760019650505050505050610c58565b8060ff166004856001600160a01b0316901b179350505080611bac9061321f565b9050611b3f565b50856001600160a01b0316816001600160a01b031614935050505092915050565b60006001600160401b03821115611c3c5760405162461bcd60e51b815260206004820152602660248201527f53616665436173743a2076616c756520646f65736e27742066697420696e203660448201526534206269747360d01b6064820152608401610230565b5090565b606060ff8314611c5a57611c53836124ba565b9050610c58565b818054611c6690612efa565b80601f0160208091040260200160405190810160405280929190818152602001828054611c9290612efa565b8015611cdf5780601f10611cb457610100808354040283529160200191611cdf565b820191906000526020600020905b815481529060010190602001808311611cc257829003601f168201915b50505050509050610c58565b604051634f38ce7b60e11b81526001600160a01b038481166004830152602482018490526000917f000000000000000000000000000000000000000000000000000000000000000090911690639e719cf690604401602060405180830381865afa925050508015611d79575060408051601f3d908101601f19168201909252611d7691810190613254565b60015b611deb5760405162461bcd60e51b815260206004820152603960248201527f476f7665726e6f723a2072657075746174696f6e206f7261636c6520646f657360448201527f206e6f7420737570706f72742070617374206c6f6f6b757073000000000000006064820152608401610230565b90506112ca565b60608315611e015750816112ca565b6112ca83836124f9565b60008111611e6b5760405162461bcd60e51b815260206004820152602760248201527f476f7665726e6f7253657474696e67733a20766f74696e6720706572696f6420604482015266746f6f206c6f7760c81b6064820152608401610230565b60075460408051918252602082018390527f7e3f7f0708a84de9203036abaa450dccc85ad5ff52f78c170f3edb55cf5e8828910160405180910390a1600755565b60085460408051918252602082018390527fccb45da8d5717e6c4544694297c4ba5cf151d455c9bb0ed4fc7a38411bc05461910160405180910390a1600855565b6000306001600160a01b037f000000000000000000000000000000000000000000000000000000000000000016148015611f4657507f000000000000000000000000000000000000000000000000000000000000000046145b15611f7057507f000000000000000000000000000000000000000000000000000000000000000090565b6112dc604080517f8b73c3c69bb8fe3d512ecc4cf759cc79239f7b179b0ffacaa9a75d522b39400f60208201527f0000000000000000000000000000000000000000000000000000000000000000918101919091527f000000000000000000000000000000000000000000000000000000000000000060608201524660808201523060a082015260009060c00160405160208183030381529060405280519060200120905090565b6000807f7fffffffffffffffffffffffffffffff5d576e7357a4501ddfe92f46681b20a083111561204f57506000905060036120d3565b6040805160008082526020820180845289905260ff881692820192909252606081018690526080810185905260019060a0016020604051602081039080840390855afa1580156120a3573d6000803e3d6000fd5b5050604051601f1901519150506001600160a01b0381166120cc576000600192509250506120d3565b9150600090505b94509492505050565b60008160048111156120f0576120f0612a7c565b036120f85750565b600181600481111561210c5761210c612a7c565b036121595760405162461bcd60e51b815260206004820152601860248201527f45434453413a20696e76616c6964207369676e617475726500000000000000006044820152606401610230565b600281600481111561216d5761216d612a7c565b036121ba5760405162461bcd60e51b815260206004820152601f60248201527f45434453413a20696e76616c6964207369676e6174757265206c656e677468006044820152606401610230565b60038160048111156121ce576121ce612a7c565b03610e175760405162461bcd60e51b815260206004820152602260248201527f45434453413a20696e76616c6964207369676e6174757265202773272076616c604482015261756560f01b6064820152608401610230565b60008581526009602090815260408083206001600160a01b0388168452600381019092529091205460ff16156122ae5760405162461bcd60e51b815260206004820152602760248201527f476f7665726e6f72566f74696e6753696d706c653a20766f746520616c726561604482015266191e4818d85cdd60ca1b6064820152608401610230565b6001600160a01b03851660009081526003820160205260409020805460ff1916600117905560ff84166122fa57828160000160008282546122ef9190612fd5565b909155506116a59050565b60001960ff85160161231a57828160010160008282546122ef9190612fd5565b60011960ff85160161233a57828160020160008282546122ef9190612fd5565b60405162461bcd60e51b815260206004820152603560248201527f476f7665726e6f72566f74696e6753696d706c653a20696e76616c69642076616044820152746c756520666f7220656e756d20566f74655479706560581b6064820152608401610230565b8154600160801b90819004600f0b6000818152600180860160205260409091209390935583546001600160801b03908116939091011602179055565b6000818152600960205260408120600281015460018201546123fe9190612fd5565b60008481526003602052604090205461241f906001600160401b0316610849565b11159392505050565b60008060f883901c602f811180156124435750603a8160ff16105b1561245857600194602f199091019350915050565b8060ff16604010801561246e575060478160ff16105b15612483576001946036199091019350915050565b8060ff166060108015612499575060678160ff16105b156124ae576001946056199091019350915050565b50600093849350915050565b606060006124c783612523565b604080516020808252818301909252919250600091906020820181803683375050509182525060208101929092525090565b8151156125095781518083602001fd5b8060405162461bcd60e51b81526004016102309190612786565b600060ff8216601f811115610c5857604051632cd44ac360e21b815260040160405180910390fd5b60006020828403121561255d57600080fd5b81356001600160e01b0319811681146112ca57600080fd5b803560ff8116811461258657600080fd5b919050565b60008083601f84011261259d57600080fd5b5081356001600160401b038111156125b457600080fd5b6020830191508360208285010111156125cc57600080fd5b9250929050565b634e487b7160e01b600052604160045260246000fd5b604051601f8201601f191681016001600160401b0381118282101715612611576126116125d3565b604052919050565b60006001600160401b03831115612632576126326125d3565b612645601f8401601f19166020016125e9565b905082815283838301111561265957600080fd5b828260208301376000602084830101529392505050565b600082601f83011261268157600080fd5b6112ca83833560208501612619565b60008060008060008060008060e0898b0312156126ac57600080fd5b883597506126bc60208a01612575565b965060408901356001600160401b03808211156126d857600080fd5b6126e48c838d0161258b565b909850965060608b01359150808211156126fd57600080fd5b5061270a8b828c01612670565b94505061271960808a01612575565b925060a0890135915060c089013590509295985092959890939650565b60005b83811015612751578181015183820152602001612739565b50506000910152565b60008151808452612772816020860160208601612736565b601f01601f19169290920160200192915050565b6020815260006112ca602083018461275a565b6000602082840312156127ab57600080fd5b5035919050565b80356001600160a01b038116811461258657600080fd5b600080600080608085870312156127df57600080fd5b6127e8856127b2565b93506127f6602086016127b2565b92506040850135915060608501356001600160401b0381111561281857600080fd5b61282487828801612670565b91505092959194509250565b60006001600160401b03821115612849576128496125d3565b5060051b60200190565b600082601f83011261286457600080fd5b8135602061287961287483612830565b6125e9565b82815260059290921b8401810191818101908684111561289857600080fd5b8286015b848110156128ba576128ad816127b2565b835291830191830161289c565b509695505050505050565b600082601f8301126128d657600080fd5b813560206128e661287483612830565b82815260059290921b8401810191818101908684111561290557600080fd5b8286015b848110156128ba5780358352918301918301612909565b600082601f83011261293157600080fd5b8135602061294161287483612830565b82815260059290921b8401810191818101908684111561296057600080fd5b8286015b848110156128ba5780356001600160401b038111156129835760008081fd5b6129918986838b0101612670565b845250918301918301612964565b600080600080608085870312156129b557600080fd5b84356001600160401b03808211156129cc57600080fd5b6129d888838901612853565b955060208701359150808211156129ee57600080fd5b6129fa888389016128c5565b94506040870135915080821115612a1057600080fd5b50612a1d87828801612920565b949793965093946060013593505050565b600080600080600060a08688031215612a4657600080fd5b85359450612a5660208701612575565b9350612a6460408701612575565b94979396509394606081013594506080013592915050565b634e487b7160e01b600052602160045260246000fd5b6020810160088310612ab457634e487b7160e01b600052602160045260246000fd5b91905290565b60008060408385031215612acd57600080fd5b82359150612add602084016127b2565b90509250929050565b60008060408385031215612af957600080fd5b82359150612add60208401612575565b600080600080600060808688031215612b2157600080fd5b85359450612b3160208701612575565b935060408601356001600160401b0380821115612b4d57600080fd5b612b5989838a0161258b565b90955093506060880135915080821115612b7257600080fd5b50612b7f88828901612670565b9150509295509295909350565b60008060008060608587031215612ba257600080fd5b84359350612bb260208601612575565b925060408501356001600160401b03811115612bcd57600080fd5b612bd98782880161258b565b95989497509550505050565b60008060008060808587031215612bfb57600080fd5b84356001600160401b0380821115612c1257600080fd5b612c1e88838901612853565b95506020870135915080821115612c3457600080fd5b612c40888389016128c5565b94506040870135915080821115612c5657600080fd5b612c6288838901612920565b93506060870135915080821115612c7857600080fd5b508501601f81018713612c8a57600080fd5b61282487823560208401612619565b600081518084526020808501945080840160005b83811015612cc957815187529582019590820190600101612cad565b509495945050505050565b60ff60f81b8816815260e060208201526000612cf360e083018961275a565b8281036040840152612d05818961275a565b606084018890526001600160a01b038716608085015260a0840186905283810360c08501529050610a0b8185612c99565b600080600060608486031215612d4b57600080fd5b612d54846127b2565b92506020840135915060408401356001600160401b03811115612d7657600080fd5b612d8286828701612670565b9150509250925092565b600080600080600060a08688031215612da457600080fd5b612dad866127b2565b9450612dbb602087016127b2565b935060408601356001600160401b0380821115612dd757600080fd5b612de389838a016128c5565b94506060880135915080821115612df957600080fd5b612e0589838a016128c5565b93506080880135915080821115612b7257600080fd5b60008060008060608587031215612e3157600080fd5b612e3a856127b2565b93506020850135925060408501356001600160401b03811115612bcd57600080fd5b60008060408385031215612e6f57600080fd5b612e78836127b2565b946020939093013593505050565b600080600080600060a08688031215612e9e57600080fd5b612ea7866127b2565b9450612eb5602087016127b2565b9350604086013592506060860135915060808601356001600160401b03811115612ede57600080fd5b612b7f88828901612670565b8183823760009101908152919050565b600181811c90821680612f0e57607f821691505b602082108103612f2e57634e487b7160e01b600052602260045260246000fd5b50919050565b60208082526018908201527f476f7665726e6f723a206f6e6c79476f7665726e616e63650000000000000000604082015260600190565b634e487b7160e01b600052601160045260246000fd5b81810381811115610c5857610c58612f6b565b60208082526021908201527f476f7665726e6f723a20696e76616c69642070726f706f73616c206c656e67746040820152600d60fb1b606082015260800190565b80820180821115610c5857610c58612f6b565b600081518084526020808501945080840160005b83811015612cc95781516001600160a01b031687529582019590820190600101612ffc565b600082825180855260208086019550808260051b84010181860160005b8481101561306c57601f1986840301895261305a83835161275a565b9884019892509083019060010161303e565b5090979650505050505050565b60006101208b8352602060018060a01b038c16818501528160408501526130a28285018c612fe8565b915083820360608501526130b6828b612c99565b915083820360808501528189518084528284019150828160051b850101838c0160005b8381101561310757601f198784030185526130f583835161275a565b948601949250908501906001016130d9565b505086810360a088015261311b818c613021565b9450505050508560c08401528460e0840152828103610100840152613140818561275a565b9c9b505050505050505050505050565b6080815260006131636080830187612fe8565b82810360208401526131758187612c99565b905082810360408401526131898186613021565b91505082606083015295945050505050565b84815260ff84166020820152826040820152608060608201526000610917608083018461275a565b85815260ff8516602082015283604082015260a0606082015260006131eb60a083018561275a565b82810360808401526131fd818561275a565b98975050505050505050565b634e487b7160e01b600052603260045260246000fd5b60006001820161323157613231612f6b565b5060010190565b6000825161324a818460208701612736565b9190910192915050565b60006020828403121561326657600080fd5b505191905056fe476f7665726e6f723a2072656c617920726576657274656420776974686f7574206d657373616765476f7665726e6f723a2063616c6c20726576657274656420776974686f7574206d657373616765a264697066735822122042c9061596660e4b63e87726d38d7c6b065c44d7fd6898bf2f5d3a34ce44cac864736f6c63430008130033",
  "linkReferences": {},
  "deployedLinkReferences": {}
}